{
  "address": "0xaca81583840B1bf2dDF6CDe824ada250C1936B4D",
  "abi": [
    {
      "inputs": [],
      "name": "ethUsdOracle",
      "outputs": [
        {
          "internalType": "contract IChainlinkAggregator",
          "name": "",
          "type": "address"
        }
      ],
      "stateMutability": "view",
      "type": "function"
    },
    {
      "inputs": [],
      "name": "latestAnswer",
      "outputs": [
        {
          "internalType": "int256",
          "name": "",
          "type": "int256"
        }
      ],
      "stateMutability": "view",
      "type": "function"
    }
  ],
  "transactionHash": "0x8a2c0474986e378599603a1502cdb47f0a82ea1059d39b188d6a0f1b275d5eed",
  "args": [],
  "numDeployments": 1,
  "solcInputHash": "128bad3d3955c2b1822e176aa3abab35",
  "bytecode": "0x608060405234801561001057600080fd5b506103f1806100206000396000f3fe608060405234801561001057600080fd5b50600436106100365760003560e01c806350d25bcd1461003b5780638a97f9c914610059575b600080fd5b61004361008d565b6040518082815260200191505060405180910390f35b61006161016e565b604051808273ffffffffffffffffffffffffffffffffffffffff16815260200191505060405180910390f35b600080735f4ec3df9cbd43714fe2740f5e3616155c5b841973ffffffffffffffffffffffffffffffffffffffff166350d25bcd6040518163ffffffff1660e01b815260040160206040518083038186803b1580156100ea57600080fd5b505afa1580156100fe573d6000803e3d6000fd5b505050506040513d602081101561011457600080fd5b8101908080519060200190929190505050905060008113156101655760006402540be4008202905060006101588261014a610186565b61019690919063ffffffff16565b905080935050505061016b565b60009150505b90565b735f4ec3df9cbd43714fe2740f5e3616155c5b841981565b6000670de0b6b3a7640000905090565b6000808214156040518060400160405280600281526020017f353000000000000000000000000000000000000000000000000000000000000081525090610278576040517f08c379a00000000000000000000000000000000000000000000000000000000081526004018080602001828103825283818151815260200191508051906020019080838360005b8381101561023d578082015181840152602081019050610222565b50505050905090810190601f16801561026a5780820380516001836020036101000a031916815260200191505b509250505060405180910390fd5b5060006002838161028557fe5b049050670de0b6b3a7640000817fffffffffffffffffffffffffffffffffffffffffffffffffffffffffffffffff03816102bb57fe5b048411156040518060400160405280600281526020017f34380000000000000000000000000000000000000000000000000000000000008152509061039b576040517f08c379a00000000000000000000000000000000000000000000000000000000081526004018080602001828103825283818151815260200191508051906020019080838360005b83811015610360578082015181840152602081019050610345565b50505050905090810190601f16801561038d5780820380516001836020036101000a031916815260200191505b509250505060405180910390fd5b508281670de0b6b3a7640000860201816103b157fe5b049150509291505056fea2646970667358221220f6c0f07a882503fd581111d82541f291f30781ac023fa1af4d452a6007c7c67f64736f6c634300060c0033",
  "devdoc": {
    "author": "Aave*",
    "details": "The model of interest rate is based on 2 slopes, one before the `OPTIMAL_UTILIZATION_RATE` point of utilization and another from that one to 100% - An instance of this same contract, can't be used across different Aave markets, due to the caching   of the LendingPoolAddressesProvider",
    "kind": "dev",
    "methods": {},
    "title": "DefaultReserveInterestRateStrategy contract",
    "version": 1
  },
  "userdoc": {
    "kind": "user",
    "methods": {},
    "notice": "Implements the calculation of the interest rates depending on the reserve state",
    "version": 1
  },
  "storageLayout": {
    "storage": [],
    "types": null
  }
}