{
  "address": "0x5D42EBdBBa61412295D7b0302d6F50aC449Ddb4F",
  "abi": [
    {
      "inputs": [
        {
          "internalType": "contract ILendingPoolAddressesProvider",
          "name": "provider",
          "type": "address"
        },
        {
          "internalType": "uint256",
          "name": "optimalUtilizationRate",
          "type": "uint256"
        },
        {
          "internalType": "uint256",
          "name": "baseVariableBorrowRate",
          "type": "uint256"
        },
        {
          "internalType": "uint256",
          "name": "variableRateSlope1",
          "type": "uint256"
        },
        {
          "internalType": "uint256",
          "name": "variableRateSlope2",
          "type": "uint256"
        },
        {
          "internalType": "uint256",
          "name": "stableRateSlope1",
          "type": "uint256"
        },
        {
          "internalType": "uint256",
          "name": "stableRateSlope2",
          "type": "uint256"
        }
      ],
      "stateMutability": "nonpayable",
      "type": "constructor"
    },
    {
      "inputs": [],
      "name": "EXCESS_UTILIZATION_RATE",
      "outputs": [
        {
          "internalType": "uint256",
          "name": "",
          "type": "uint256"
        }
      ],
      "stateMutability": "view",
      "type": "function"
    },
    {
      "inputs": [],
      "name": "OPTIMAL_UTILIZATION_RATE",
      "outputs": [
        {
          "internalType": "uint256",
          "name": "",
          "type": "uint256"
        }
      ],
      "stateMutability": "view",
      "type": "function"
    },
    {
      "inputs": [],
      "name": "addressesProvider",
      "outputs": [
        {
          "internalType": "contract ILendingPoolAddressesProvider",
          "name": "",
          "type": "address"
        }
      ],
      "stateMutability": "view",
      "type": "function"
    },
    {
      "inputs": [],
      "name": "baseVariableBorrowRate",
      "outputs": [
        {
          "internalType": "uint256",
          "name": "",
          "type": "uint256"
        }
      ],
      "stateMutability": "view",
      "type": "function"
    },
    {
      "inputs": [
        {
          "internalType": "address",
          "name": "reserve",
          "type": "address"
        },
        {
          "internalType": "uint256",
          "name": "availableLiquidity",
          "type": "uint256"
        },
        {
          "internalType": "uint256",
          "name": "totalStableDebt",
          "type": "uint256"
        },
        {
          "internalType": "uint256",
          "name": "totalVariableDebt",
          "type": "uint256"
        },
        {
          "internalType": "uint256",
          "name": "averageStableBorrowRate",
          "type": "uint256"
        },
        {
          "internalType": "uint256",
          "name": "reserveFactor",
          "type": "uint256"
        }
      ],
      "name": "calculateInterestRates",
      "outputs": [
        {
          "internalType": "uint256",
          "name": "",
          "type": "uint256"
        },
        {
          "internalType": "uint256",
          "name": "",
          "type": "uint256"
        },
        {
          "internalType": "uint256",
          "name": "",
          "type": "uint256"
        }
      ],
      "stateMutability": "view",
      "type": "function"
    },
    {
      "inputs": [],
      "name": "getMaxVariableBorrowRate",
      "outputs": [
        {
          "internalType": "uint256",
          "name": "",
          "type": "uint256"
        }
      ],
      "stateMutability": "view",
      "type": "function"
    },
    {
      "inputs": [],
      "name": "stableRateSlope1",
      "outputs": [
        {
          "internalType": "uint256",
          "name": "",
          "type": "uint256"
        }
      ],
      "stateMutability": "view",
      "type": "function"
    },
    {
      "inputs": [],
      "name": "stableRateSlope2",
      "outputs": [
        {
          "internalType": "uint256",
          "name": "",
          "type": "uint256"
        }
      ],
      "stateMutability": "view",
      "type": "function"
    },
    {
      "inputs": [],
      "name": "variableRateSlope1",
      "outputs": [
        {
          "internalType": "uint256",
          "name": "",
          "type": "uint256"
        }
      ],
      "stateMutability": "view",
      "type": "function"
    },
    {
      "inputs": [],
      "name": "variableRateSlope2",
      "outputs": [
        {
          "internalType": "uint256",
          "name": "",
          "type": "uint256"
        }
      ],
      "stateMutability": "view",
      "type": "function"
    }
  ],
  "transactionHash": "0x2033f2462fd55d9f6c21692f2a2cdeb22e287ee89e32071930b36f14139c7208",
  "args": [
    "0xB53C1a33016B2DC2fF3653530bfF1848a515c8c5",
    0,
    "20000000000000000000000000",
    0,
    0,
    0,
    0
  ],
  "numDeployments": 1,
  "solcInputHash": "128bad3d3955c2b1822e176aa3abab35",
  "bytecode": "0x61018060405234801561001157600080fd5b506040516108f63803806108f6833981810160405260e081101561003457600080fd5b810190808051906020019092919080519060200190929190805190602001909291908051906020019092919080519060200190929190805190602001909291908051906020019092919050505085608081815250506100b18661009f61012760201b61045b1760201c565b61013b60201b61046f1790919060201c565b60a081815250508673ffffffffffffffffffffffffffffffffffffffff1660c08173ffffffffffffffffffffffffffffffffffffffff1660601b815250508460e081815250508361010081815250508261012081815250508161014081815250508061016081815250505050505050505061024b565b60006b033b2e3c9fd0803ce8000000905090565b600061018383836040518060400160405280601e81526020017f536166654d6174683a207375627472616374696f6e206f766572666c6f77000081525061018b60201b60201c565b905092915050565b6000838311158290610238576040517f08c379a00000000000000000000000000000000000000000000000000000000081526004018080602001828103825283818151815260200191508051906020019080838360005b838110156101fd5780820151818401526020810190506101e2565b50505050905090810190601f16801561022a5780820380516001836020036101000a031916815260200191505b509250505060405180910390fd5b5060008385039050809150509392505050565b60805160a05160c05160601c60e051610100516101205161014051610160516106376102bf600039806104375250806102635250806102af52806103025250806102d75280610326525080610347528061039252806103eb5250806104115250806102895250806103c552506106376000f3fe608060405234801561001057600080fd5b506004361061009e5760003560e01c80639584df28116100665780639584df2814610139578063a15f30ac146101d1578063b2589544146101ef578063c72c4d101461020d578063ccab01a3146102415761009e565b80630bdf953f146100a357806317319873146100c157806365614f81146100df5780637b832f58146100fd57806380031e371461011b575b600080fd5b6100ab61025f565b6040518082815260200191505060405180910390f35b6100c9610287565b6040518082815260200191505060405180910390f35b6100e76102ab565b6040518082815260200191505060405180910390f35b6101056102d3565b6040518082815260200191505060405180910390f35b6101236102fb565b6040518082815260200191505060405180910390f35b6101ad600480360360c081101561014f57600080fd5b81019080803573ffffffffffffffffffffffffffffffffffffffff1690602001909291908035906020019092919080359060200190929190803590602001909291908035906020019092919080359060200190929190505050610387565b60405180848152602001838152602001828152602001935050505060405180910390f35b6101d96103c3565b6040518082815260200191505060405180910390f35b6101f76103e7565b6040518082815260200191505060405180910390f35b61021561040f565b604051808273ffffffffffffffffffffffffffffffffffffffff16815260200191505060405180910390f35b610249610433565b6040518082815260200191505060405180910390f35b60007f0000000000000000000000000000000000000000000000000000000000000000905090565b7f000000000000000000000000000000000000000000000000000000000000000081565b60007f0000000000000000000000000000000000000000000000000000000000000000905090565b60007f0000000000000000000000000000000000000000000000000000000000000000905090565b60006103827f00000000000000000000000000000000000000000000000000000000000000006103747f00000000000000000000000000000000000000000000000000000000000000007f00000000000000000000000000000000000000000000000000000000000000006104b990919063ffffffff16565b6104b990919063ffffffff16565b905090565b6000806000600160007f000000000000000000000000000000000000000000000000000000000000000092509250925096509650969350505050565b7f000000000000000000000000000000000000000000000000000000000000000081565b60007f0000000000000000000000000000000000000000000000000000000000000000905090565b7f000000000000000000000000000000000000000000000000000000000000000081565b60007f0000000000000000000000000000000000000000000000000000000000000000905090565b60006b033b2e3c9fd0803ce8000000905090565b60006104b183836040518060400160405280601e81526020017f536166654d6174683a207375627472616374696f6e206f766572666c6f770000815250610541565b905092915050565b600080828401905083811015610537576040517f08c379a000000000000000000000000000000000000000000000000000000000815260040180806020018281038252601b8152602001807f536166654d6174683a206164646974696f6e206f766572666c6f77000000000081525060200191505060405180910390fd5b8091505092915050565b60008383111582906105ee576040517f08c379a00000000000000000000000000000000000000000000000000000000081526004018080602001828103825283818151815260200191508051906020019080838360005b838110156105b3578082015181840152602081019050610598565b50505050905090810190601f1680156105e05780820380516001836020036101000a031916815260200191505b509250505060405180910390fd5b506000838503905080915050939250505056fea264697066735822122021a8ef5e331a0d9e0c2b7447fdad659e046de22f394f915b03dc21158cf14ab664736f6c634300060c0033",
  "devdoc": {
    "author": "Aave*",
    "details": "The model of interest rate is based on 2 slopes, one before the `OPTIMAL_UTILIZATION_RATE` point of utilization and another from that one to 100% - An instance of this same contract, can't be used across different Aave markets, due to the caching   of the LendingPoolAddressesProvider",
    "kind": "dev",
    "methods": {
      "calculateInterestRates(address,uint256,uint256,uint256,uint256,uint256)": {
        "details": "Calculates the interest rates depending on the reserve's state and configurations",
        "params": {
          "availableLiquidity": "The liquidity available in the reserve",
          "averageStableBorrowRate": "The weighted average of all the stable rate loans",
          "reserve": "The address of the reserve",
          "reserveFactor": "The reserve portion of the interest that goes to the treasury of the market",
          "totalStableDebt": "The total borrowed from the reserve a stable rate",
          "totalVariableDebt": "The total borrowed from the reserve at a variable rate"
        },
        "returns": {
          "_0": "The liquidity rate, the stable borrow rate and the variable borrow rate*"
        }
      }
    },
    "stateVariables": {
      "EXCESS_UTILIZATION_RATE": {
        "details": "This constant represents the excess utilization rate above the optimal. It's always equal to 1-optimal utilization rate. Added as a constant here for gas optimizations. Expressed in ray*"
      },
      "OPTIMAL_UTILIZATION_RATE": {
        "details": "this constant represents the utilization rate at which the pool aims to obtain most competitive borrow rates. Expressed in ray*"
      }
    },
    "title": "DefaultReserveInterestRateStrategy contract",
    "version": 1
  },
  "userdoc": {
    "kind": "user",
    "methods": {},
    "notice": "Implements the calculation of the interest rates depending on the reserve state",
    "version": 1
  },
  "storageLayout": {
    "storage": [],
    "types": null
  }
}