{
  "address": "0xefAB0Beb0A557E452b398035eA964948c750b2Fd",
  "abi": [
    {
      "inputs": [
        {
          "components": [
            {
              "internalType": "string",
              "name": "label",
              "type": "string"
            },
            {
              "internalType": "address",
              "name": "entityAddress",
              "type": "address"
            },
            {
              "internalType": "uint256",
              "name": "mintLimit",
              "type": "uint256"
            },
            {
              "internalType": "address[]",
              "name": "minters",
              "type": "address[]"
            },
            {
              "internalType": "address[]",
              "name": "burners",
              "type": "address[]"
            },
            {
              "internalType": "bool",
              "name": "active",
              "type": "bool"
            }
          ],
          "internalType": "struct AnteiStableDollarEntities.InputEntity[]",
          "name": "inputEntities",
          "type": "tuple[]"
        }
      ],
      "stateMutability": "nonpayable",
      "type": "constructor"
    },
    {
      "anonymous": false,
      "inputs": [
        {
          "indexed": true,
          "internalType": "address",
          "name": "owner",
          "type": "address"
        },
        {
          "indexed": true,
          "internalType": "address",
          "name": "spender",
          "type": "address"
        },
        {
          "indexed": false,
          "internalType": "uint256",
          "name": "amount",
          "type": "uint256"
        }
      ],
      "name": "Approval",
      "type": "event"
    },
    {
      "anonymous": false,
      "inputs": [
        {
          "indexed": true,
          "internalType": "uint256",
          "name": "entityId",
          "type": "uint256"
        },
        {
          "indexed": true,
          "internalType": "address",
          "name": "burner",
          "type": "address"
        }
      ],
      "name": "BurnerAdded",
      "type": "event"
    },
    {
      "anonymous": false,
      "inputs": [
        {
          "indexed": true,
          "internalType": "uint256",
          "name": "entityId",
          "type": "uint256"
        },
        {
          "indexed": true,
          "internalType": "address",
          "name": "burner",
          "type": "address"
        }
      ],
      "name": "BurnerRemoved",
      "type": "event"
    },
    {
      "anonymous": false,
      "inputs": [
        {
          "indexed": true,
          "internalType": "uint256",
          "name": "entityId",
          "type": "uint256"
        },
        {
          "indexed": false,
          "internalType": "bool",
          "name": "active",
          "type": "bool"
        }
      ],
      "name": "EntityActivated",
      "type": "event"
    },
    {
      "anonymous": false,
      "inputs": [
        {
          "indexed": true,
          "internalType": "uint256",
          "name": "id",
          "type": "uint256"
        },
        {
          "indexed": false,
          "internalType": "string",
          "name": "label",
          "type": "string"
        },
        {
          "indexed": false,
          "internalType": "address",
          "name": "entityAddress",
          "type": "address"
        },
        {
          "indexed": false,
          "internalType": "uint256",
          "name": "mintLimit",
          "type": "uint256"
        }
      ],
      "name": "EntityCreated",
      "type": "event"
    },
    {
      "anonymous": false,
      "inputs": [
        {
          "indexed": true,
          "internalType": "uint256",
          "name": "entityId",
          "type": "uint256"
        },
        {
          "indexed": false,
          "internalType": "uint256",
          "name": "oldMintLimit",
          "type": "uint256"
        },
        {
          "indexed": false,
          "internalType": "uint256",
          "name": "newMintLimit",
          "type": "uint256"
        }
      ],
      "name": "EntityMintLimitUpdated",
      "type": "event"
    },
    {
      "anonymous": false,
      "inputs": [
        {
          "indexed": true,
          "internalType": "uint256",
          "name": "entityId",
          "type": "uint256"
        },
        {
          "indexed": true,
          "internalType": "address",
          "name": "minter",
          "type": "address"
        }
      ],
      "name": "MinterAdded",
      "type": "event"
    },
    {
      "anonymous": false,
      "inputs": [
        {
          "indexed": true,
          "internalType": "uint256",
          "name": "entityId",
          "type": "uint256"
        },
        {
          "indexed": true,
          "internalType": "address",
          "name": "minter",
          "type": "address"
        }
      ],
      "name": "MinterRemoved",
      "type": "event"
    },
    {
      "anonymous": false,
      "inputs": [
        {
          "indexed": true,
          "internalType": "address",
          "name": "previousOwner",
          "type": "address"
        },
        {
          "indexed": true,
          "internalType": "address",
          "name": "newOwner",
          "type": "address"
        }
      ],
      "name": "OwnershipTransferred",
      "type": "event"
    },
    {
      "anonymous": false,
      "inputs": [
        {
          "indexed": true,
          "internalType": "address",
          "name": "from",
          "type": "address"
        },
        {
          "indexed": true,
          "internalType": "address",
          "name": "to",
          "type": "address"
        },
        {
          "indexed": false,
          "internalType": "uint256",
          "name": "amount",
          "type": "uint256"
        }
      ],
      "name": "Transfer",
      "type": "event"
    },
    {
      "inputs": [],
      "name": "DOMAIN_SEPARATOR",
      "outputs": [
        {
          "internalType": "bytes32",
          "name": "",
          "type": "bytes32"
        }
      ],
      "stateMutability": "view",
      "type": "function"
    },
    {
      "inputs": [],
      "name": "PERMIT_TYPEHASH",
      "outputs": [
        {
          "internalType": "bytes32",
          "name": "",
          "type": "bytes32"
        }
      ],
      "stateMutability": "view",
      "type": "function"
    },
    {
      "inputs": [
        {
          "internalType": "uint256",
          "name": "entityId",
          "type": "uint256"
        }
      ],
      "name": "activateEntity",
      "outputs": [],
      "stateMutability": "nonpayable",
      "type": "function"
    },
    {
      "inputs": [
        {
          "internalType": "uint256",
          "name": "entityId",
          "type": "uint256"
        },
        {
          "internalType": "address",
          "name": "burner",
          "type": "address"
        }
      ],
      "name": "addBurner",
      "outputs": [],
      "stateMutability": "nonpayable",
      "type": "function"
    },
    {
      "inputs": [
        {
          "components": [
            {
              "internalType": "string",
              "name": "label",
              "type": "string"
            },
            {
              "internalType": "address",
              "name": "entityAddress",
              "type": "address"
            },
            {
              "internalType": "uint256",
              "name": "mintLimit",
              "type": "uint256"
            },
            {
              "internalType": "address[]",
              "name": "minters",
              "type": "address[]"
            },
            {
              "internalType": "address[]",
              "name": "burners",
              "type": "address[]"
            },
            {
              "internalType": "bool",
              "name": "active",
              "type": "bool"
            }
          ],
          "internalType": "struct AnteiStableDollarEntities.InputEntity[]",
          "name": "inputEntities",
          "type": "tuple[]"
        }
      ],
      "name": "addEntities",
      "outputs": [],
      "stateMutability": "nonpayable",
      "type": "function"
    },
    {
      "inputs": [
        {
          "internalType": "uint256",
          "name": "entityId",
          "type": "uint256"
        },
        {
          "internalType": "address",
          "name": "minter",
          "type": "address"
        }
      ],
      "name": "addMinter",
      "outputs": [],
      "stateMutability": "nonpayable",
      "type": "function"
    },
    {
      "inputs": [
        {
          "internalType": "address",
          "name": "",
          "type": "address"
        },
        {
          "internalType": "address",
          "name": "",
          "type": "address"
        }
      ],
      "name": "allowance",
      "outputs": [
        {
          "internalType": "uint256",
          "name": "",
          "type": "uint256"
        }
      ],
      "stateMutability": "view",
      "type": "function"
    },
    {
      "inputs": [
        {
          "internalType": "address",
          "name": "spender",
          "type": "address"
        },
        {
          "internalType": "uint256",
          "name": "amount",
          "type": "uint256"
        }
      ],
      "name": "approve",
      "outputs": [
        {
          "internalType": "bool",
          "name": "",
          "type": "bool"
        }
      ],
      "stateMutability": "nonpayable",
      "type": "function"
    },
    {
      "inputs": [
        {
          "internalType": "address",
          "name": "",
          "type": "address"
        }
      ],
      "name": "balanceOf",
      "outputs": [
        {
          "internalType": "uint256",
          "name": "",
          "type": "uint256"
        }
      ],
      "stateMutability": "view",
      "type": "function"
    },
    {
      "inputs": [
        {
          "internalType": "address",
          "name": "account",
          "type": "address"
        },
        {
          "internalType": "uint256",
          "name": "amount",
          "type": "uint256"
        }
      ],
      "name": "burn",
      "outputs": [],
      "stateMutability": "nonpayable",
      "type": "function"
    },
    {
      "inputs": [
        {
          "internalType": "uint256",
          "name": "entityId",
          "type": "uint256"
        }
      ],
      "name": "deactivateEntity",
      "outputs": [],
      "stateMutability": "nonpayable",
      "type": "function"
    },
    {
      "inputs": [],
      "name": "decimals",
      "outputs": [
        {
          "internalType": "uint8",
          "name": "",
          "type": "uint8"
        }
      ],
      "stateMutability": "view",
      "type": "function"
    },
    {
      "inputs": [
        {
          "internalType": "address",
          "name": "burner",
          "type": "address"
        }
      ],
      "name": "getBurnerEntity",
      "outputs": [
        {
          "internalType": "uint256",
          "name": "",
          "type": "uint256"
        }
      ],
      "stateMutability": "view",
      "type": "function"
    },
    {
      "inputs": [
        {
          "internalType": "uint256",
          "name": "entityId",
          "type": "uint256"
        }
      ],
      "name": "getEntityBalance",
      "outputs": [
        {
          "internalType": "uint256",
          "name": "",
          "type": "uint256"
        }
      ],
      "stateMutability": "view",
      "type": "function"
    },
    {
      "inputs": [
        {
          "internalType": "uint256",
          "name": "entityId",
          "type": "uint256"
        }
      ],
      "name": "getEntityBurners",
      "outputs": [
        {
          "internalType": "address[]",
          "name": "",
          "type": "address[]"
        }
      ],
      "stateMutability": "view",
      "type": "function"
    },
    {
      "inputs": [
        {
          "internalType": "uint256",
          "name": "entityId",
          "type": "uint256"
        }
      ],
      "name": "getEntityById",
      "outputs": [
        {
          "components": [
            {
              "internalType": "string",
              "name": "label",
              "type": "string"
            },
            {
              "internalType": "address",
              "name": "entityAddress",
              "type": "address"
            },
            {
              "internalType": "uint256",
              "name": "mintLimit",
              "type": "uint256"
            },
            {
              "internalType": "uint256",
              "name": "mintBalance",
              "type": "uint256"
            },
            {
              "internalType": "address[]",
              "name": "minters",
              "type": "address[]"
            },
            {
              "internalType": "address[]",
              "name": "burners",
              "type": "address[]"
            },
            {
              "internalType": "bool",
              "name": "active",
              "type": "bool"
            }
          ],
          "internalType": "struct AnteiStableDollarEntities.Entity",
          "name": "",
          "type": "tuple"
        }
      ],
      "stateMutability": "view",
      "type": "function"
    },
    {
      "inputs": [],
      "name": "getEntityCount",
      "outputs": [
        {
          "internalType": "uint256",
          "name": "",
          "type": "uint256"
        }
      ],
      "stateMutability": "view",
      "type": "function"
    },
    {
      "inputs": [
        {
          "internalType": "uint256",
          "name": "entityId",
          "type": "uint256"
        }
      ],
      "name": "getEntityMintLimit",
      "outputs": [
        {
          "internalType": "uint256",
          "name": "",
          "type": "uint256"
        }
      ],
      "stateMutability": "view",
      "type": "function"
    },
    {
      "inputs": [
        {
          "internalType": "uint256",
          "name": "entityId",
          "type": "uint256"
        }
      ],
      "name": "getEntityMinters",
      "outputs": [
        {
          "internalType": "address[]",
          "name": "",
          "type": "address[]"
        }
      ],
      "stateMutability": "view",
      "type": "function"
    },
    {
      "inputs": [
        {
          "internalType": "address",
          "name": "minter",
          "type": "address"
        }
      ],
      "name": "getMinterEntity",
      "outputs": [
        {
          "internalType": "uint256",
          "name": "",
          "type": "uint256"
        }
      ],
      "stateMutability": "view",
      "type": "function"
    },
    {
      "inputs": [
        {
          "internalType": "uint256",
          "name": "entityId",
          "type": "uint256"
        }
      ],
      "name": "isActive",
      "outputs": [
        {
          "internalType": "bool",
          "name": "",
          "type": "bool"
        }
      ],
      "stateMutability": "view",
      "type": "function"
    },
    {
      "inputs": [
        {
          "internalType": "address",
          "name": "account",
          "type": "address"
        },
        {
          "internalType": "uint256",
          "name": "amount",
          "type": "uint256"
        }
      ],
      "name": "mint",
      "outputs": [],
      "stateMutability": "nonpayable",
      "type": "function"
    },
    {
      "inputs": [],
      "name": "name",
      "outputs": [
        {
          "internalType": "string",
          "name": "",
          "type": "string"
        }
      ],
      "stateMutability": "view",
      "type": "function"
    },
    {
      "inputs": [
        {
          "internalType": "address",
          "name": "",
          "type": "address"
        }
      ],
      "name": "nonces",
      "outputs": [
        {
          "internalType": "uint256",
          "name": "",
          "type": "uint256"
        }
      ],
      "stateMutability": "view",
      "type": "function"
    },
    {
      "inputs": [],
      "name": "owner",
      "outputs": [
        {
          "internalType": "address",
          "name": "",
          "type": "address"
        }
      ],
      "stateMutability": "view",
      "type": "function"
    },
    {
      "inputs": [
        {
          "internalType": "address",
          "name": "owner",
          "type": "address"
        },
        {
          "internalType": "address",
          "name": "spender",
          "type": "address"
        },
        {
          "internalType": "uint256",
          "name": "value",
          "type": "uint256"
        },
        {
          "internalType": "uint256",
          "name": "deadline",
          "type": "uint256"
        },
        {
          "internalType": "uint8",
          "name": "v",
          "type": "uint8"
        },
        {
          "internalType": "bytes32",
          "name": "r",
          "type": "bytes32"
        },
        {
          "internalType": "bytes32",
          "name": "s",
          "type": "bytes32"
        }
      ],
      "name": "permit",
      "outputs": [],
      "stateMutability": "nonpayable",
      "type": "function"
    },
    {
      "inputs": [
        {
          "internalType": "uint256",
          "name": "entityId",
          "type": "uint256"
        },
        {
          "internalType": "address",
          "name": "burner",
          "type": "address"
        }
      ],
      "name": "removeBurner",
      "outputs": [],
      "stateMutability": "nonpayable",
      "type": "function"
    },
    {
      "inputs": [
        {
          "internalType": "uint256",
          "name": "entityId",
          "type": "uint256"
        },
        {
          "internalType": "address",
          "name": "minter",
          "type": "address"
        }
      ],
      "name": "removeMinter",
      "outputs": [],
      "stateMutability": "nonpayable",
      "type": "function"
    },
    {
      "inputs": [],
      "name": "renounceOwnership",
      "outputs": [],
      "stateMutability": "nonpayable",
      "type": "function"
    },
    {
      "inputs": [
        {
          "internalType": "uint256",
          "name": "entityId",
          "type": "uint256"
        },
        {
          "internalType": "uint256",
          "name": "newMintLimit",
          "type": "uint256"
        }
      ],
      "name": "setEntityMintLimit",
      "outputs": [],
      "stateMutability": "nonpayable",
      "type": "function"
    },
    {
      "inputs": [],
      "name": "symbol",
      "outputs": [
        {
          "internalType": "string",
          "name": "",
          "type": "string"
        }
      ],
      "stateMutability": "view",
      "type": "function"
    },
    {
      "inputs": [],
      "name": "totalSupply",
      "outputs": [
        {
          "internalType": "uint256",
          "name": "",
          "type": "uint256"
        }
      ],
      "stateMutability": "view",
      "type": "function"
    },
    {
      "inputs": [
        {
          "internalType": "address",
          "name": "to",
          "type": "address"
        },
        {
          "internalType": "uint256",
          "name": "amount",
          "type": "uint256"
        }
      ],
      "name": "transfer",
      "outputs": [
        {
          "internalType": "bool",
          "name": "",
          "type": "bool"
        }
      ],
      "stateMutability": "nonpayable",
      "type": "function"
    },
    {
      "inputs": [
        {
          "internalType": "address",
          "name": "from",
          "type": "address"
        },
        {
          "internalType": "address",
          "name": "to",
          "type": "address"
        },
        {
          "internalType": "uint256",
          "name": "amount",
          "type": "uint256"
        }
      ],
      "name": "transferFrom",
      "outputs": [
        {
          "internalType": "bool",
          "name": "",
          "type": "bool"
        }
      ],
      "stateMutability": "nonpayable",
      "type": "function"
    },
    {
      "inputs": [
        {
          "internalType": "address",
          "name": "newOwner",
          "type": "address"
        }
      ],
      "name": "transferOwnership",
      "outputs": [],
      "stateMutability": "nonpayable",
      "type": "function"
    }
  ],
  "transactionHash": "0xb2b46d2c7348cf8d29b8bca9e1a93c773ec293f6679d6c89c7e1e3cbf931272a",
  "args": [
    []
  ],
  "numDeployments": 1,
  "solcInputHash": "ca64425aad569b7e877c60c9637286ca",
  "bytecode": "0x60e06040523480156200001157600080fd5b5060405162005bea38038062005bea833981810160405281019062000037919062000c9d565b6040518060400160405280601381526020017f416e74656920537461626c6520446f6c6c6172000000000000000000000000008152506040518060400160405280600381526020017f415344000000000000000000000000000000000000000000000000000000000081525060128260009080519060200190620000bd9291906200087d565b508160019080519060200190620000d69291906200087d565b508060ff1660808160ff1660f81b815250504660a08181525050620001006200014260201b60201c565b60c081815250505050506200012a6200011e620001d260201b60201c565b620001da60201b60201c565b6200013b81620002a060201b60201c565b5062001216565b60007f8b73c3c69bb8fe3d512ecc4cf759cc79239f7b179b0ffacaa9a75d522b39400f600060405162000176919062000e03565b60405180910390207fc89efdaa54c0f20c7adf612882df0950f5a951637e0307cdcb4c672f298b8bc64630604051602001620001b795949392919062000e39565b60405160208183030381529060405280519060200120905090565b600033905090565b6000600660009054906101000a900473ffffffffffffffffffffffffffffffffffffffff16905081600660006101000a81548173ffffffffffffffffffffffffffffffffffffffff021916908373ffffffffffffffffffffffffffffffffffffffff1602179055508173ffffffffffffffffffffffffffffffffffffffff168173ffffffffffffffffffffffffffffffffffffffff167f8be0079c531659141344cd1fd0a4f28419497f9722a3daafe3b4186f6b6457e060405160405180910390a35050565b60005b81518110156200031557620002ff828281518110620002eb577f4e487b7100000000000000000000000000000000000000000000000000000000600052603260045260246000fd5b60200260200101516200031960201b60201c565b80806200030c90620010dc565b915050620002a3565b5050565b6000600a600081546200032c90620010dc565b919050819055905060006007600083815260200190815260200160002090508181600001819055508260000151816001019080519060200190620003729291906200087d565b5082602001518160020160006101000a81548173ffffffffffffffffffffffffffffffffffffffff021916908373ffffffffffffffffffffffffffffffffffffffff160217905550826040015181600301819055508260600151816005019080519060200190620003e59291906200090e565b508260800151816006019080519060200190620004049291906200090e565b508260a001518160070160006101000a81548160ff02191690831515021790555060005b836060015151811015620005e95780826008016000866060015184815181106200047b577f4e487b7100000000000000000000000000000000000000000000000000000000600052603260045260246000fd5b602002602001015173ffffffffffffffffffffffffffffffffffffffff1673ffffffffffffffffffffffffffffffffffffffff1681526020019081526020016000208190555082600860008660600151848151811062000504577f4e487b7100000000000000000000000000000000000000000000000000000000600052603260045260246000fd5b602002602001015173ffffffffffffffffffffffffffffffffffffffff1673ffffffffffffffffffffffffffffffffffffffff168152602001908152602001600020819055508360600151818151811062000588577f4e487b7100000000000000000000000000000000000000000000000000000000600052603260045260246000fd5b602002602001015173ffffffffffffffffffffffffffffffffffffffff16837f7337e5c407610f6bd748329849ab56c2c946c3646a8affcee03bf008ace0b1ef60405160405180910390a38080620005e090620010dc565b91505062000428565b5060005b836080015151811015620007ae57808260090160008660800151848151811062000640577f4e487b7100000000000000000000000000000000000000000000000000000000600052603260045260246000fd5b602002602001015173ffffffffffffffffffffffffffffffffffffffff1673ffffffffffffffffffffffffffffffffffffffff16815260200190815260200160002081905550826009600086608001518481518110620006c9577f4e487b7100000000000000000000000000000000000000000000000000000000600052603260045260246000fd5b602002602001015173ffffffffffffffffffffffffffffffffffffffff1673ffffffffffffffffffffffffffffffffffffffff16815260200190815260200160002081905550836080015181815181106200074d577f4e487b7100000000000000000000000000000000000000000000000000000000600052603260045260246000fd5b602002602001015173ffffffffffffffffffffffffffffffffffffffff16837f31b5e91f9ae824365ab486587b5bb40a1827d5939b983193e34cc8be32236ca260405160405180910390a38080620007a590620010dc565b915050620005ed565b50817f57ab7f151aad8b5f5f47d249063be79826950bd932be963be39e53fead7fe3b6846000015185602001518660400151604051620007f19392919062000ec3565b60405180910390a2817fabee7d3260521503cf5e54c8970cc51066d14d4fffcbf8f22d4ec3d6c7b764ee8460a001516040516200082f919062000e1c565b60405180910390a2817f57407406dab7da150ed0ce0e5835d85b3ca868e4574b01fba7270a2ddb98c43c600085604001516040516200087092919062000e96565b60405180910390a2505050565b8280546200088b90620010a6565b90600052602060002090601f016020900481019282620008af5760008555620008fb565b82601f10620008ca57805160ff1916838001178555620008fb565b82800160010185558215620008fb579182015b82811115620008fa578251825591602001919060010190620008dd565b5b5090506200090a91906200099d565b5090565b8280548282559060005260206000209081019282156200098a579160200282015b82811115620009895782518260006101000a81548173ffffffffffffffffffffffffffffffffffffffff021916908373ffffffffffffffffffffffffffffffffffffffff160217905550916020019190600101906200092f565b5b5090506200099991906200099d565b5090565b5b80821115620009b85760008160009055506001016200099e565b5090565b6000620009d3620009cd8462000f3b565b62000f07565b90508083825260208201905082856020860282011115620009f357600080fd5b60005b8581101562000a27578162000a0c888262000adb565b845260208401935060208301925050600181019050620009f6565b5050509392505050565b600062000a4862000a428462000f6a565b62000f07565b9050808382526020820190508260005b8581101562000a8c578151850162000a71888262000b90565b84526020840193506020830192505060018101905062000a58565b5050509392505050565b600062000aad62000aa78462000f99565b62000f07565b90508281526020810184848401111562000ac657600080fd5b62000ad384828562001070565b509392505050565b60008151905062000aec81620011c8565b92915050565b600082601f83011262000b0457600080fd5b815162000b16848260208601620009bc565b91505092915050565b600082601f83011262000b3157600080fd5b815162000b4384826020860162000a31565b91505092915050565b60008151905062000b5d81620011e2565b92915050565b600082601f83011262000b7557600080fd5b815162000b8784826020860162000a96565b91505092915050565b600060c0828403121562000ba357600080fd5b62000baf60c062000f07565b9050600082015167ffffffffffffffff81111562000bcc57600080fd5b62000bda8482850162000b63565b600083015250602062000bf08482850162000adb565b602083015250604062000c068482850162000c86565b604083015250606082015167ffffffffffffffff81111562000c2757600080fd5b62000c358482850162000af2565b606083015250608082015167ffffffffffffffff81111562000c5657600080fd5b62000c648482850162000af2565b60808301525060a062000c7a8482850162000b4c565b60a08301525092915050565b60008151905062000c9781620011fc565b92915050565b60006020828403121562000cb057600080fd5b600082015167ffffffffffffffff81111562000ccb57600080fd5b62000cd98482850162000b1f565b91505092915050565b62000ced8162001008565b82525050565b62000cfe816200101c565b82525050565b62000d0f8162001028565b82525050565b6000815462000d2481620010a6565b62000d30818662000fec565b9450600182166000811462000d4e576001811462000d605762000d97565b60ff1983168652818601935062000d97565b62000d6b8562000fcc565b60005b8381101562000d8f5781548189015260018201915060208101905062000d6e565b838801955050505b50505092915050565b62000dab816200105c565b82525050565b600062000dbe8262000fe1565b62000dca818562000ff7565b935062000ddc81856020860162001070565b62000de781620011b7565b840191505092915050565b62000dfd8162001052565b82525050565b600062000e11828462000d15565b915081905092915050565b600060208201905062000e33600083018462000cf3565b92915050565b600060a08201905062000e50600083018862000d04565b62000e5f602083018762000d04565b62000e6e604083018662000d04565b62000e7d606083018562000df2565b62000e8c608083018462000ce2565b9695505050505050565b600060408201905062000ead600083018562000da0565b62000ebc602083018462000df2565b9392505050565b6000606082019050818103600083015262000edf818662000db1565b905062000ef0602083018562000ce2565b62000eff604083018462000df2565b949350505050565b6000604051905081810181811067ffffffffffffffff8211171562000f315762000f3062001188565b5b8060405250919050565b600067ffffffffffffffff82111562000f595762000f5862001188565b5b602082029050602081019050919050565b600067ffffffffffffffff82111562000f885762000f8762001188565b5b602082029050602081019050919050565b600067ffffffffffffffff82111562000fb75762000fb662001188565b5b601f19601f8301169050602081019050919050565b60008190508160005260206000209050919050565b600081519050919050565b600081905092915050565b600082825260208201905092915050565b6000620010158262001032565b9050919050565b60008115159050919050565b6000819050919050565b600073ffffffffffffffffffffffffffffffffffffffff82169050919050565b6000819050919050565b6000620010698262001052565b9050919050565b60005b838110156200109057808201518184015260208101905062001073565b83811115620010a0576000848401525b50505050565b60006002820490506001821680620010bf57607f821691505b60208210811415620010d657620010d562001159565b5b50919050565b6000620010e98262001052565b91507fffffffffffffffffffffffffffffffffffffffffffffffffffffffffffffffff8214156200111f576200111e6200112a565b5b600182019050919050565b7f4e487b7100000000000000000000000000000000000000000000000000000000600052601160045260246000fd5b7f4e487b7100000000000000000000000000000000000000000000000000000000600052602260045260246000fd5b7f4e487b7100000000000000000000000000000000000000000000000000000000600052604160045260246000fd5b6000601f19601f8301169050919050565b620011d38162001008565b8114620011df57600080fd5b50565b620011ed816200101c565b8114620011f957600080fd5b50565b620012078162001052565b81146200121357600080fd5b50565b60805160f81c60a05160c0516149a1620012496000396000610fbb01526000610f8701526000610caa01526149a16000f3fe608060405234801561001057600080fd5b50600436106102115760003560e01c80637ecebe0011610125578063a2e88ec1116100ad578063d505accf1161007c578063d505accf1461064c578063d70b01c114610668578063dd62ed3e14610684578063e88f6ca2146106b4578063f2fde38b146106e457610211565b8063a2e88ec1146105b4578063a363e1b4146105e4578063a9059cbb14610600578063c0d9d7b81461063057610211565b806382e9848d116100f457806382e9848d14610524578063890ffd40146105405780638da5cb5b1461055c57806395d89b411461057a5780639dc29fac1461059857610211565b80637ecebe001461048c5780637f96d157146104bc5780637fb0fdca146104d857806382afd23b146104f457610211565b8063313ce567116101a85780635840270f116101775780635840270f146103d45780635d1b45b51461040457806370a0823114610422578063715018a6146104525780637435c3c31461045c57610211565b8063313ce5671461034c57806332c227a91461036a5780633644e5151461039a57806340c10f19146103b857610211565b806318160ddd116101e457806318160ddd146102b057806323b872dd146102ce5780632ef78513146102fe57806330adf81f1461032e57610211565b8063047bf6141461021657806306fdde0314610232578063095ea7b3146102505780630abd20a714610280575b600080fd5b610230600480360381019061022b9190613879565b610700565b005b61023a61084b565b604051610247919061427c565b60405180910390f35b61026a600480360381019061026591906137fc565b6108d9565b6040516102779190614124565b60405180910390f35b61029a600480360381019061029591906136aa565b6109cb565b6040516102a791906144de565b60405180910390f35b6102b8610a14565b6040516102c591906144de565b60405180910390f35b6102e860048036038101906102e3919061370f565b610a1a565b6040516102f59190614124565b60405180910390f35b61031860048036038101906103139190613879565b610c64565b60405161032591906144de565b60405180910390f35b610336610c84565b604051610343919061413f565b60405180910390f35b610354610ca8565b6040516103619190614522565b60405180910390f35b610384600480360381019061037f9190613879565b610ccc565b60405161039191906144bc565b60405180910390f35b6103a2610f83565b6040516103af919061413f565b60405180910390f35b6103d260048036038101906103cd91906137fc565b610fe0565b005b6103ee60048036038101906103e99190613879565b611174565b6040516103fb9190614102565b60405180910390f35b61040c611218565b60405161041991906144de565b60405180910390f35b61043c600480360381019061043791906136aa565b611222565b60405161044991906144de565b60405180910390f35b61045a61123a565b005b61047660048036038101906104719190613879565b6112c2565b6040516104839190614102565b60405180910390f35b6104a660048036038101906104a191906136aa565b611366565b6040516104b391906144de565b60405180910390f35b6104d660048036038101906104d191906138a2565b61137e565b005b6104f260048036038101906104ed9190613838565b611650565b005b61050e60048036038101906105099190613879565b6116d8565b60405161051b9190614124565b60405180910390f35b61053e600480360381019061053991906138a2565b611705565b005b61055a600480360381019061055591906138a2565b6118c4565b005b610564611a83565b60405161057191906140e7565b60405180910390f35b610582611aad565b60405161058f919061427c565b60405180910390f35b6105b260048036038101906105ad91906137fc565b611b3b565b005b6105ce60048036038101906105c99190613879565b611c62565b6040516105db91906144de565b60405180910390f35b6105fe60048036038101906105f99190613879565b611c82565b005b61061a600480360381019061061591906137fc565b611dcc565b6040516106279190614124565b60405180910390f35b61064a600480360381019061064591906138de565b611ee0565b005b6106666004803603810190610661919061375e565b61202b565b005b610682600480360381019061067d91906138a2565b61232a565b005b61069e600480360381019061069991906136d3565b6125fc565b6040516106ab91906144de565b60405180910390f35b6106ce60048036038101906106c991906136aa565b612621565b6040516106db91906144de565b60405180910390f35b6106fe60048036038101906106f991906136aa565b61266a565b005b610708612762565b73ffffffffffffffffffffffffffffffffffffffff16610726611a83565b73ffffffffffffffffffffffffffffffffffffffff161461077c576040517f08c379a0000000000000000000000000000000000000000000000000000000008152600401610773906143dc565b60405180910390fd5b6007600082815260200190815260200160002060070160009054906101000a900460ff16156107e0576040517f08c379a00000000000000000000000000000000000000000000000000000000081526004016107d7906142dc565b60405180910390fd5b60016007600083815260200190815260200160002060070160006101000a81548160ff021916908315150217905550807fabee7d3260521503cf5e54c8970cc51066d14d4fffcbf8f22d4ec3d6c7b764ee60016040516108409190614124565b60405180910390a250565b60008054610858906147d5565b80601f0160208091040260200160405190810160405280929190818152602001828054610884906147d5565b80156108d15780601f106108a6576101008083540402835291602001916108d1565b820191906000526020600020905b8154815290600101906020018083116108b457829003601f168201915b505050505081565b600081600460003373ffffffffffffffffffffffffffffffffffffffff1673ffffffffffffffffffffffffffffffffffffffff16815260200190815260200160002060008573ffffffffffffffffffffffffffffffffffffffff1673ffffffffffffffffffffffffffffffffffffffff168152602001908152602001600020819055508273ffffffffffffffffffffffffffffffffffffffff163373ffffffffffffffffffffffffffffffffffffffff167f8c5be1e5ebec7d5bd14f71427d1e84f3dd0314c0f7b2291e5b200ac8c7c3b925846040516109b991906144de565b60405180910390a36001905092915050565b6000600860008373ffffffffffffffffffffffffffffffffffffffff1673ffffffffffffffffffffffffffffffffffffffff168152602001908152602001600020549050919050565b60025481565b600080600460008673ffffffffffffffffffffffffffffffffffffffff1673ffffffffffffffffffffffffffffffffffffffff16815260200190815260200160002060003373ffffffffffffffffffffffffffffffffffffffff1673ffffffffffffffffffffffffffffffffffffffff1681526020019081526020016000205490507fffffffffffffffffffffffffffffffffffffffffffffffffffffffffffffffff8114610b50578281610acf91906146ee565b600460008773ffffffffffffffffffffffffffffffffffffffff1673ffffffffffffffffffffffffffffffffffffffff16815260200190815260200160002060003373ffffffffffffffffffffffffffffffffffffffff1673ffffffffffffffffffffffffffffffffffffffff168152602001908152602001600020819055505b82600360008773ffffffffffffffffffffffffffffffffffffffff1673ffffffffffffffffffffffffffffffffffffffff1681526020019081526020016000206000828254610b9f91906146ee565b9250508190555082600360008673ffffffffffffffffffffffffffffffffffffffff1673ffffffffffffffffffffffffffffffffffffffff168152602001908152602001600020600082825401925050819055508373ffffffffffffffffffffffffffffffffffffffff168573ffffffffffffffffffffffffffffffffffffffff167fddf252ad1be2c89b69c2b068fc378daa952ba7f163c4a11628f55a4df523b3ef85604051610c5091906144de565b60405180910390a360019150509392505050565b600060076000838152602001908152602001600020600301549050919050565b7f6e71edae12b1b97f4d1f60370fef10105fa2faae0126114a169c64845d6126c981565b7f000000000000000000000000000000000000000000000000000000000000000081565b610cd4613256565b60006040518060e00160405280600760008681526020019081526020016000206001018054610d02906147d5565b80601f0160208091040260200160405190810160405280929190818152602001828054610d2e906147d5565b8015610d7b5780601f10610d5057610100808354040283529160200191610d7b565b820191906000526020600020905b815481529060010190602001808311610d5e57829003601f168201915b505050505081526020016007600086815260200190815260200160002060020160009054906101000a900473ffffffffffffffffffffffffffffffffffffffff1673ffffffffffffffffffffffffffffffffffffffff168152602001600760008681526020019081526020016000206003015481526020016007600086815260200190815260200160002060040154815260200160076000868152602001908152602001600020600501805480602002602001604051908101604052809291908181526020018280548015610ea557602002820191906000526020600020905b8160009054906101000a900473ffffffffffffffffffffffffffffffffffffffff1673ffffffffffffffffffffffffffffffffffffffff1681526020019060010190808311610e5b575b5050505050815260200160076000868152602001908152602001600020600601805480602002602001604051908101604052809291908181526020018280548015610f4557602002820191906000526020600020905b8160009054906101000a900473ffffffffffffffffffffffffffffffffffffffff1673ffffffffffffffffffffffffffffffffffffffff1681526020019060010190808311610efb575b505050505081526020016007600086815260200190815260200160002060070160009054906101000a900460ff161515815250905080915050919050565b60007f00000000000000000000000000000000000000000000000000000000000000004614610fb957610fb461276a565b610fdb565b7f00000000000000000000000000000000000000000000000000000000000000005b905090565b6000600860003373ffffffffffffffffffffffffffffffffffffffff1673ffffffffffffffffffffffffffffffffffffffff1681526020019081526020016000205490506000811415611068576040517f08c379a000000000000000000000000000000000000000000000000000000000815260040161105f9061435c565b60405180910390fd5b6007600082815260200190815260200160002060070160009054906101000a900460ff166110cb576040517f08c379a00000000000000000000000000000000000000000000000000000000081526004016110c2906142fc565b60405180910390fd5b60008260076000848152602001908152602001600020600401546110ef9190614698565b905080600760008481526020019081526020016000206003015411611149576040517f08c379a0000000000000000000000000000000000000000000000000000000008152600401611140906143bc565b60405180910390fd5b80600760008481526020019081526020016000206004018190555061116e84846127f6565b50505050565b60606007600083815260200190815260200160002060050180548060200260200160405190810160405280929190818152602001828054801561120c57602002820191906000526020600020905b8160009054906101000a900473ffffffffffffffffffffffffffffffffffffffff1673ffffffffffffffffffffffffffffffffffffffff16815260200190600101908083116111c2575b50505050509050919050565b6000600a54905090565b60036020528060005260406000206000915090505481565b611242612762565b73ffffffffffffffffffffffffffffffffffffffff16611260611a83565b73ffffffffffffffffffffffffffffffffffffffff16146112b6576040517f08c379a00000000000000000000000000000000000000000000000000000000081526004016112ad906143dc565b60405180910390fd5b6112c060006128c6565b565b60606007600083815260200190815260200160002060060180548060200260200160405190810160405280929190818152602001828054801561135a57602002820191906000526020600020905b8160009054906101000a900473ffffffffffffffffffffffffffffffffffffffff1673ffffffffffffffffffffffffffffffffffffffff1681526020019060010190808311611310575b50505050509050919050565b60056020528060005260406000206000915090505481565b611386612762565b73ffffffffffffffffffffffffffffffffffffffff166113a4611a83565b73ffffffffffffffffffffffffffffffffffffffff16146113fa576040517f08c379a00000000000000000000000000000000000000000000000000000000081526004016113f1906143dc565b60405180910390fd5b600060076000848152602001908152602001600020600001541415611454576040517f08c379a000000000000000000000000000000000000000000000000000000000815260040161144b9061433c565b60405180910390fd5b6000600960008373ffffffffffffffffffffffffffffffffffffffff1673ffffffffffffffffffffffffffffffffffffffff16815260200190815260200160002054146114d6576040517f08c379a00000000000000000000000000000000000000000000000000000000081526004016114cd9061439c565b60405180910390fd5b60006007600084815260200190815260200160002060060180549050905060076000848152602001908152602001600020600601829080600181540180825580915050600190039060005260206000200160009091909190916101000a81548173ffffffffffffffffffffffffffffffffffffffff021916908373ffffffffffffffffffffffffffffffffffffffff160217905550806007600085815260200190815260200160002060090160008473ffffffffffffffffffffffffffffffffffffffff1673ffffffffffffffffffffffffffffffffffffffff1681526020019081526020016000208190555082600960008473ffffffffffffffffffffffffffffffffffffffff1673ffffffffffffffffffffffffffffffffffffffff168152602001908152602001600020819055508173ffffffffffffffffffffffffffffffffffffffff16837f31b5e91f9ae824365ab486587b5bb40a1827d5939b983193e34cc8be32236ca260405160405180910390a3505050565b611658612762565b73ffffffffffffffffffffffffffffffffffffffff16611676611a83565b73ffffffffffffffffffffffffffffffffffffffff16146116cc576040517f08c379a00000000000000000000000000000000000000000000000000000000081526004016116c3906143dc565b60405180910390fd5b6116d58161298c565b50565b60006007600083815260200190815260200160002060070160009054906101000a900460ff169050919050565b61170d612762565b73ffffffffffffffffffffffffffffffffffffffff1661172b611a83565b73ffffffffffffffffffffffffffffffffffffffff1614611781576040517f08c379a0000000000000000000000000000000000000000000000000000000008152600401611778906143dc565b60405180910390fd5b81600960008373ffffffffffffffffffffffffffffffffffffffff1673ffffffffffffffffffffffffffffffffffffffff1681526020019081526020016000205414611802576040517f08c379a00000000000000000000000000000000000000000000000000000000081526004016117f99061443c565b60405180910390fd5b6118376007600084815260200190815260200160002060060160076000858152602001908152602001600020600901836129f8565b6000600960008373ffffffffffffffffffffffffffffffffffffffff1673ffffffffffffffffffffffffffffffffffffffff168152602001908152602001600020819055508073ffffffffffffffffffffffffffffffffffffffff16827f603b4dab4c4466e9856d7fa060d8b013912d4ae9d02b595be4b835326686669c60405160405180910390a35050565b6118cc612762565b73ffffffffffffffffffffffffffffffffffffffff166118ea611a83565b73ffffffffffffffffffffffffffffffffffffffff1614611940576040517f08c379a0000000000000000000000000000000000000000000000000000000008152600401611937906143dc565b60405180910390fd5b81600860008373ffffffffffffffffffffffffffffffffffffffff1673ffffffffffffffffffffffffffffffffffffffff16815260200190815260200160002054146119c1576040517f08c379a00000000000000000000000000000000000000000000000000000000081526004016119b89061445c565b60405180910390fd5b6119f66007600084815260200190815260200160002060050160076000858152602001908152602001600020600801836129f8565b6000600860008373ffffffffffffffffffffffffffffffffffffffff1673ffffffffffffffffffffffffffffffffffffffff168152602001908152602001600020819055508073ffffffffffffffffffffffffffffffffffffffff16827fd124e34cb336a5d97cf79c6158548fef3f4f3539833cd12e6c440f62c288fc4760405160405180910390a35050565b6000600660009054906101000a900473ffffffffffffffffffffffffffffffffffffffff16905090565b60018054611aba906147d5565b80601f0160208091040260200160405190810160405280929190818152602001828054611ae6906147d5565b8015611b335780601f10611b0857610100808354040283529160200191611b33565b820191906000526020600020905b815481529060010190602001808311611b1657829003601f168201915b505050505081565b6000600960003373ffffffffffffffffffffffffffffffffffffffff1673ffffffffffffffffffffffffffffffffffffffff1681526020019081526020016000205490506000811415611bc3576040517f08c379a0000000000000000000000000000000000000000000000000000000008152600401611bba9061449c565b60405180910390fd5b6007600082815260200190815260200160002060070160009054906101000a900460ff16611c26576040517f08c379a0000000000000000000000000000000000000000000000000000000008152600401611c1d906142fc565b60405180910390fd5b81600760008381526020019081526020016000206004016000828254611c4c91906146ee565b92505081905550611c5d8383612c3e565b505050565b600060076000838152602001908152602001600020600401549050919050565b611c8a612762565b73ffffffffffffffffffffffffffffffffffffffff16611ca8611a83565b73ffffffffffffffffffffffffffffffffffffffff1614611cfe576040517f08c379a0000000000000000000000000000000000000000000000000000000008152600401611cf5906143dc565b60405180910390fd5b6007600082815260200190815260200160002060070160009054906101000a900460ff16611d61576040517f08c379a0000000000000000000000000000000000000000000000000000000008152600401611d589061437c565b60405180910390fd5b60006007600083815260200190815260200160002060070160006101000a81548160ff021916908315150217905550807fabee7d3260521503cf5e54c8970cc51066d14d4fffcbf8f22d4ec3d6c7b764ee6000604051611dc19190614124565b60405180910390a250565b600081600360003373ffffffffffffffffffffffffffffffffffffffff1673ffffffffffffffffffffffffffffffffffffffff1681526020019081526020016000206000828254611e1d91906146ee565b9250508190555081600360008573ffffffffffffffffffffffffffffffffffffffff1673ffffffffffffffffffffffffffffffffffffffff168152602001908152602001600020600082825401925050819055508273ffffffffffffffffffffffffffffffffffffffff163373ffffffffffffffffffffffffffffffffffffffff167fddf252ad1be2c89b69c2b068fc378daa952ba7f163c4a11628f55a4df523b3ef84604051611ece91906144de565b60405180910390a36001905092915050565b611ee8612762565b73ffffffffffffffffffffffffffffffffffffffff16611f06611a83565b73ffffffffffffffffffffffffffffffffffffffff1614611f5c576040517f08c379a0000000000000000000000000000000000000000000000000000000008152600401611f53906143dc565b60405180910390fd5b600060076000848152602001908152602001600020600001541415611fb6576040517f08c379a0000000000000000000000000000000000000000000000000000000008152600401611fad9061433c565b60405180910390fd5b600060076000848152602001908152602001600020600301549050816007600085815260200190815260200160002060030181905550827f57407406dab7da150ed0ce0e5835d85b3ca868e4574b01fba7270a2ddb98c43c828460405161201e9291906144f9565b60405180910390a2505050565b4284101561206e576040517f08c379a00000000000000000000000000000000000000000000000000000000081526004016120659061447c565b60405180910390fd5b6000612078610f83565b7f6e71edae12b1b97f4d1f60370fef10105fa2faae0126114a169c64845d6126c9898989600560008e73ffffffffffffffffffffffffffffffffffffffff1673ffffffffffffffffffffffffffffffffffffffff1681526020019081526020016000206000815480929190600101919050558a6040516020016121009695949392919061415a565b604051602081830303815290604052805190602001206040516020016121279291906140b0565b604051602081830303815290604052805190602001209050600060018286868660405160008152602001604052604051612164949392919061420e565b6020604051602081039080840390855afa158015612186573d6000803e3d6000fd5b505050602060405103519050600073ffffffffffffffffffffffffffffffffffffffff168173ffffffffffffffffffffffffffffffffffffffff16141580156121fa57508873ffffffffffffffffffffffffffffffffffffffff168173ffffffffffffffffffffffffffffffffffffffff16145b612239576040517f08c379a0000000000000000000000000000000000000000000000000000000008152600401612230906143fc565b60405180910390fd5b86600460008373ffffffffffffffffffffffffffffffffffffffff1673ffffffffffffffffffffffffffffffffffffffff16815260200190815260200160002060008a73ffffffffffffffffffffffffffffffffffffffff1673ffffffffffffffffffffffffffffffffffffffff1681526020019081526020016000208190555050508573ffffffffffffffffffffffffffffffffffffffff168773ffffffffffffffffffffffffffffffffffffffff167f8c5be1e5ebec7d5bd14f71427d1e84f3dd0314c0f7b2291e5b200ac8c7c3b9258760405161231991906144de565b60405180910390a350505050505050565b612332612762565b73ffffffffffffffffffffffffffffffffffffffff16612350611a83565b73ffffffffffffffffffffffffffffffffffffffff16146123a6576040517f08c379a000000000000000000000000000000000000000000000000000000000815260040161239d906143dc565b60405180910390fd5b600060076000848152602001908152602001600020600001541415612400576040517f08c379a00000000000000000000000000000000000000000000000000000000081526004016123f79061433c565b60405180910390fd5b6000600860008373ffffffffffffffffffffffffffffffffffffffff1673ffffffffffffffffffffffffffffffffffffffff1681526020019081526020016000205414612482576040517f08c379a00000000000000000000000000000000000000000000000000000000081526004016124799061441c565b60405180910390fd5b60006007600084815260200190815260200160002060050180549050905060076000848152602001908152602001600020600501829080600181540180825580915050600190039060005260206000200160009091909190916101000a81548173ffffffffffffffffffffffffffffffffffffffff021916908373ffffffffffffffffffffffffffffffffffffffff160217905550806007600085815260200190815260200160002060080160008473ffffffffffffffffffffffffffffffffffffffff1673ffffffffffffffffffffffffffffffffffffffff1681526020019081526020016000208190555082600860008473ffffffffffffffffffffffffffffffffffffffff1673ffffffffffffffffffffffffffffffffffffffff168152602001908152602001600020819055508173ffffffffffffffffffffffffffffffffffffffff16837f7337e5c407610f6bd748329849ab56c2c946c3646a8affcee03bf008ace0b1ef60405160405180910390a3505050565b6004602052816000526040600020602052806000526040600020600091509150505481565b6000600960008373ffffffffffffffffffffffffffffffffffffffff1673ffffffffffffffffffffffffffffffffffffffff168152602001908152602001600020549050919050565b612672612762565b73ffffffffffffffffffffffffffffffffffffffff16612690611a83565b73ffffffffffffffffffffffffffffffffffffffff16146126e6576040517f08c379a00000000000000000000000000000000000000000000000000000000081526004016126dd906143dc565b60405180910390fd5b600073ffffffffffffffffffffffffffffffffffffffff168173ffffffffffffffffffffffffffffffffffffffff161415612756576040517f08c379a000000000000000000000000000000000000000000000000000000000815260040161274d9061431c565b60405180910390fd5b61275f816128c6565b50565b600033905090565b60007f8b73c3c69bb8fe3d512ecc4cf759cc79239f7b179b0ffacaa9a75d522b39400f600060405161279c9190614099565b60405180910390207fc89efdaa54c0f20c7adf612882df0950f5a951637e0307cdcb4c672f298b8bc646306040516020016127db9594939291906141bb565b60405160208183030381529060405280519060200120905090565b80600260008282546128089190614698565b9250508190555080600360008473ffffffffffffffffffffffffffffffffffffffff1673ffffffffffffffffffffffffffffffffffffffff168152602001908152602001600020600082825401925050819055508173ffffffffffffffffffffffffffffffffffffffff16600073ffffffffffffffffffffffffffffffffffffffff167fddf252ad1be2c89b69c2b068fc378daa952ba7f163c4a11628f55a4df523b3ef836040516128ba91906144de565b60405180910390a35050565b6000600660009054906101000a900473ffffffffffffffffffffffffffffffffffffffff16905081600660006101000a81548173ffffffffffffffffffffffffffffffffffffffff021916908373ffffffffffffffffffffffffffffffffffffffff1602179055508173ffffffffffffffffffffffffffffffffffffffff168173ffffffffffffffffffffffffffffffffffffffff167f8be0079c531659141344cd1fd0a4f28419497f9722a3daafe3b4186f6b6457e060405160405180910390a35050565b60005b81518110156129f4576129e18282815181106129d4577f4e487b7100000000000000000000000000000000000000000000000000000000600052603260045260246000fd5b6020026020010151612d0e565b80806129ec90614807565b91505061298f565b5050565b60008260008373ffffffffffffffffffffffffffffffffffffffff1673ffffffffffffffffffffffffffffffffffffffff16815260200190815260200160002054905060008360008473ffffffffffffffffffffffffffffffffffffffff1673ffffffffffffffffffffffffffffffffffffffff16815260200190815260200160002081905550600060018580549050612a9291906146ee565b905080821015612bcb576000858281548110612ad7577f4e487b7100000000000000000000000000000000000000000000000000000000600052603260045260246000fd5b9060005260206000200160009054906101000a900473ffffffffffffffffffffffffffffffffffffffff16905080868481548110612b3e577f4e487b7100000000000000000000000000000000000000000000000000000000600052603260045260246000fd5b9060005260206000200160006101000a81548173ffffffffffffffffffffffffffffffffffffffff021916908373ffffffffffffffffffffffffffffffffffffffff160217905550828560008373ffffffffffffffffffffffffffffffffffffffff1673ffffffffffffffffffffffffffffffffffffffff16815260200190815260200160002081905550505b84805480612c02577f4e487b7100000000000000000000000000000000000000000000000000000000600052603160045260246000fd5b6001900381819060005260206000200160006101000a81549073ffffffffffffffffffffffffffffffffffffffff021916905590555050505050565b80600360008473ffffffffffffffffffffffffffffffffffffffff1673ffffffffffffffffffffffffffffffffffffffff1681526020019081526020016000206000828254612c8d91906146ee565b9250508190555080600260008282540392505081905550600073ffffffffffffffffffffffffffffffffffffffff168273ffffffffffffffffffffffffffffffffffffffff167fddf252ad1be2c89b69c2b068fc378daa952ba7f163c4a11628f55a4df523b3ef83604051612d0291906144de565b60405180910390a35050565b6000600a60008154612d1f90614807565b919050819055905060006007600083815260200190815260200160002090508181600001819055508260000151816001019080519060200190612d639291906132ab565b5082602001518160020160006101000a81548173ffffffffffffffffffffffffffffffffffffffff021916908373ffffffffffffffffffffffffffffffffffffffff160217905550826040015181600301819055508260600151816005019080519060200190612dd4929190613331565b508260800151816006019080519060200190612df1929190613331565b508260a001518160070160006101000a81548160ff02191690831515021790555060005b836060015151811015612fcf578082600801600086606001518481518110612e66577f4e487b7100000000000000000000000000000000000000000000000000000000600052603260045260246000fd5b602002602001015173ffffffffffffffffffffffffffffffffffffffff1673ffffffffffffffffffffffffffffffffffffffff16815260200190815260200160002081905550826008600086606001518481518110612eee577f4e487b7100000000000000000000000000000000000000000000000000000000600052603260045260246000fd5b602002602001015173ffffffffffffffffffffffffffffffffffffffff1673ffffffffffffffffffffffffffffffffffffffff1681526020019081526020016000208190555083606001518181518110612f71577f4e487b7100000000000000000000000000000000000000000000000000000000600052603260045260246000fd5b602002602001015173ffffffffffffffffffffffffffffffffffffffff16837f7337e5c407610f6bd748329849ab56c2c946c3646a8affcee03bf008ace0b1ef60405160405180910390a38080612fc790614807565b915050612e15565b5060005b83608001515181101561318d578082600901600086608001518481518110613024577f4e487b7100000000000000000000000000000000000000000000000000000000600052603260045260246000fd5b602002602001015173ffffffffffffffffffffffffffffffffffffffff1673ffffffffffffffffffffffffffffffffffffffff168152602001908152602001600020819055508260096000866080015184815181106130ac577f4e487b7100000000000000000000000000000000000000000000000000000000600052603260045260246000fd5b602002602001015173ffffffffffffffffffffffffffffffffffffffff1673ffffffffffffffffffffffffffffffffffffffff168152602001908152602001600020819055508360800151818151811061312f577f4e487b7100000000000000000000000000000000000000000000000000000000600052603260045260246000fd5b602002602001015173ffffffffffffffffffffffffffffffffffffffff16837f31b5e91f9ae824365ab486587b5bb40a1827d5939b983193e34cc8be32236ca260405160405180910390a3808061318590614807565b915050612fd3565b50817f57ab7f151aad8b5f5f47d249063be79826950bd932be963be39e53fead7fe3b68460000151856020015186604001516040516131ce9392919061429e565b60405180910390a2817fabee7d3260521503cf5e54c8970cc51066d14d4fffcbf8f22d4ec3d6c7b764ee8460a0015160405161320a9190614124565b60405180910390a2817f57407406dab7da150ed0ce0e5835d85b3ca868e4574b01fba7270a2ddb98c43c60008560400151604051613249929190614253565b60405180910390a2505050565b6040518060e0016040528060608152602001600073ffffffffffffffffffffffffffffffffffffffff168152602001600081526020016000815260200160608152602001606081526020016000151581525090565b8280546132b7906147d5565b90600052602060002090601f0160209004810192826132d95760008555613320565b82601f106132f257805160ff1916838001178555613320565b82800160010185558215613320579182015b8281111561331f578251825591602001919060010190613304565b5b50905061332d91906133bb565b5090565b8280548282559060005260206000209081019282156133aa579160200282015b828111156133a95782518260006101000a81548173ffffffffffffffffffffffffffffffffffffffff021916908373ffffffffffffffffffffffffffffffffffffffff16021790555091602001919060010190613351565b5b5090506133b791906133bb565b5090565b5b808211156133d45760008160009055506001016133bc565b5090565b60006133eb6133e68461456e565b61453d565b9050808382526020820190508285602086028201111561340a57600080fd5b60005b8581101561343a578161342088826134df565b84526020840193506020830192505060018101905061340d565b5050509392505050565b60006134576134528461459a565b61453d565b9050808382526020820190508260005b85811015613497578135850161347d888261359c565b845260208401935060208301925050600181019050613467565b5050509392505050565b60006134b46134af846145c6565b61453d565b9050828152602081018484840111156134cc57600080fd5b6134d7848285614793565b509392505050565b6000813590506134ee816148f8565b92915050565b600082601f83011261350557600080fd5b81356135158482602086016133d8565b91505092915050565b600082601f83011261352f57600080fd5b813561353f848260208601613444565b91505092915050565b6000813590506135578161490f565b92915050565b60008135905061356c81614926565b92915050565b600082601f83011261358357600080fd5b81356135938482602086016134a1565b91505092915050565b600060c082840312156135ae57600080fd5b6135b860c061453d565b9050600082013567ffffffffffffffff8111156135d457600080fd5b6135e084828501613572565b60008301525060206135f4848285016134df565b602083015250604061360884828501613680565b604083015250606082013567ffffffffffffffff81111561362857600080fd5b613634848285016134f4565b606083015250608082013567ffffffffffffffff81111561365457600080fd5b613660848285016134f4565b60808301525060a061367484828501613548565b60a08301525092915050565b60008135905061368f8161493d565b92915050565b6000813590506136a481614954565b92915050565b6000602082840312156136bc57600080fd5b60006136ca848285016134df565b91505092915050565b600080604083850312156136e657600080fd5b60006136f4858286016134df565b9250506020613705858286016134df565b9150509250929050565b60008060006060848603121561372457600080fd5b6000613732868287016134df565b9350506020613743868287016134df565b925050604061375486828701613680565b9150509250925092565b600080600080600080600060e0888a03121561377957600080fd5b60006137878a828b016134df565b97505060206137988a828b016134df565b96505060406137a98a828b01613680565b95505060606137ba8a828b01613680565b94505060806137cb8a828b01613695565b93505060a06137dc8a828b0161355d565b92505060c06137ed8a828b0161355d565b91505092959891949750929550565b6000806040838503121561380f57600080fd5b600061381d858286016134df565b925050602061382e85828601613680565b9150509250929050565b60006020828403121561384a57600080fd5b600082013567ffffffffffffffff81111561386457600080fd5b6138708482850161351e565b91505092915050565b60006020828403121561388b57600080fd5b600061389984828501613680565b91505092915050565b600080604083850312156138b557600080fd5b60006138c385828601613680565b92505060206138d4858286016134df565b9150509250929050565b600080604083850312156138f157600080fd5b60006138ff85828601613680565b925050602061391085828601613680565b9150509250929050565b60006139268383613932565b60208301905092915050565b61393b81614722565b82525050565b61394a81614722565b82525050565b600061395b8261461b565b613965818561463e565b9350613970836145f6565b8060005b838110156139a1578151613988888261391a565b975061399383614631565b925050600181019050613974565b5085935050505092915050565b60006139b98261461b565b6139c3818561464f565b93506139ce836145f6565b8060005b838110156139ff5781516139e6888261391a565b97506139f183614631565b9250506001810190506139d2565b5085935050505092915050565b613a1581614734565b82525050565b613a2481614734565b82525050565b613a3381614740565b82525050565b613a4a613a4582614740565b614850565b82525050565b60008154613a5d816147d5565b613a678186614660565b94506001821660008114613a825760018114613a9357613ac6565b60ff19831686528186019350613ac6565b613a9c85614606565b60005b83811015613abe57815481890152600182019150602081019050613a9f565b838801955050505b50505092915050565b613ad881614781565b82525050565b6000613ae982614626565b613af3818561466b565b9350613b038185602086016147a2565b613b0c816148e7565b840191505092915050565b6000613b2282614626565b613b2c818561467c565b9350613b3c8185602086016147a2565b613b45816148e7565b840191505092915050565b6000613b5d60168361467c565b91507f454e544954595f414c52454144595f41435449564544000000000000000000006000830152602082019050919050565b6000613b9d60148361467c565b91507f454e544954595f49535f4e4f545f4143544956450000000000000000000000006000830152602082019050919050565b6000613bdd60268361467c565b91507f4f776e61626c653a206e6577206f776e657220697320746865207a65726f206160008301527f64647265737300000000000000000000000000000000000000000000000000006020830152604082019050919050565b6000613c4360028361468d565b91507f19010000000000000000000000000000000000000000000000000000000000006000830152600282019050919050565b6000613c8360158361467c565b91507f454e544954595f444f45535f4e4f545f455849535400000000000000000000006000830152602082019050919050565b6000613cc360208361467c565b91507f4d494e5445525f4e4f545f41535349474e45445f544f5f414e5f454e544954596000830152602082019050919050565b6000613d03601a8361467c565b91507f454e544954595f414c52454144595f44454143544956415445440000000000006000830152602082019050919050565b6000613d4360148361467c565b91507f4255524e45525f414c52454144595f41444445440000000000000000000000006000830152602082019050919050565b6000613d83601a8361467c565b91507f454e544954595f4d494e545f4c494d49545f45584345454445440000000000006000830152602082019050919050565b6000613dc360208361467c565b91507f4f776e61626c653a2063616c6c6572206973206e6f7420746865206f776e65726000830152602082019050919050565b6000613e03600e8361467c565b91507f494e56414c49445f5349474e45520000000000000000000000000000000000006000830152602082019050919050565b6000613e4360148361467c565b91507f4d494e5445525f414c52454144595f41444445440000000000000000000000006000830152602082019050919050565b6000613e8360288361467c565b91507f4255524e45525f4e4f545f524547495354455245445f544f5f50524f5649444560008301527f445f454e544954590000000000000000000000000000000000000000000000006020830152604082019050919050565b6000613ee960288361467c565b91507f4d494e5445525f4e4f545f524547495354455245445f544f5f50524f5649444560008301527f445f454e544954590000000000000000000000000000000000000000000000006020830152604082019050919050565b6000613f4f60178361467c565b91507f5045524d49545f444541444c494e455f455850495245440000000000000000006000830152602082019050919050565b6000613f8f60208361467c565b91507f4255524e45525f4e4f545f41535349474e45445f544f5f414e5f454e544954596000830152602082019050919050565b600060e0830160008301518482036000860152613fdf8282613ade565b9150506020830151613ff46020860182613932565b506040830151614007604086018261406c565b50606083015161401a606086018261406c565b50608083015184820360808601526140328282613950565b91505060a083015184820360a086015261404c8282613950565b91505060c083015161406160c0860182613a0c565b508091505092915050565b6140758161476a565b82525050565b6140848161476a565b82525050565b61409381614774565b82525050565b60006140a58284613a50565b915081905092915050565b60006140bb82613c36565b91506140c78285613a39565b6020820191506140d78284613a39565b6020820191508190509392505050565b60006020820190506140fc6000830184613941565b92915050565b6000602082019050818103600083015261411c81846139ae565b905092915050565b60006020820190506141396000830184613a1b565b92915050565b60006020820190506141546000830184613a2a565b92915050565b600060c08201905061416f6000830189613a2a565b61417c6020830188613941565b6141896040830187613941565b614196606083018661407b565b6141a3608083018561407b565b6141b060a083018461407b565b979650505050505050565b600060a0820190506141d06000830188613a2a565b6141dd6020830187613a2a565b6141ea6040830186613a2a565b6141f7606083018561407b565b6142046080830184613941565b9695505050505050565b60006080820190506142236000830187613a2a565b614230602083018661408a565b61423d6040830185613a2a565b61424a6060830184613a2a565b95945050505050565b60006040820190506142686000830185613acf565b614275602083018461407b565b9392505050565b600060208201905081810360008301526142968184613b17565b905092915050565b600060608201905081810360008301526142b88186613b17565b90506142c76020830185613941565b6142d4604083018461407b565b949350505050565b600060208201905081810360008301526142f581613b50565b9050919050565b6000602082019050818103600083015261431581613b90565b9050919050565b6000602082019050818103600083015261433581613bd0565b9050919050565b6000602082019050818103600083015261435581613c76565b9050919050565b6000602082019050818103600083015261437581613cb6565b9050919050565b6000602082019050818103600083015261439581613cf6565b9050919050565b600060208201905081810360008301526143b581613d36565b9050919050565b600060208201905081810360008301526143d581613d76565b9050919050565b600060208201905081810360008301526143f581613db6565b9050919050565b6000602082019050818103600083015261441581613df6565b9050919050565b6000602082019050818103600083015261443581613e36565b9050919050565b6000602082019050818103600083015261445581613e76565b9050919050565b6000602082019050818103600083015261447581613edc565b9050919050565b6000602082019050818103600083015261449581613f42565b9050919050565b600060208201905081810360008301526144b581613f82565b9050919050565b600060208201905081810360008301526144d68184613fc2565b905092915050565b60006020820190506144f3600083018461407b565b92915050565b600060408201905061450e600083018561407b565b61451b602083018461407b565b9392505050565b6000602082019050614537600083018461408a565b92915050565b6000604051905081810181811067ffffffffffffffff82111715614564576145636148b8565b5b8060405250919050565b600067ffffffffffffffff821115614589576145886148b8565b5b602082029050602081019050919050565b600067ffffffffffffffff8211156145b5576145b46148b8565b5b602082029050602081019050919050565b600067ffffffffffffffff8211156145e1576145e06148b8565b5b601f19601f8301169050602081019050919050565b6000819050602082019050919050565b60008190508160005260206000209050919050565b600081519050919050565b600081519050919050565b6000602082019050919050565b600082825260208201905092915050565b600082825260208201905092915050565b600081905092915050565b600082825260208201905092915050565b600082825260208201905092915050565b600081905092915050565b60006146a38261476a565b91506146ae8361476a565b9250827fffffffffffffffffffffffffffffffffffffffffffffffffffffffffffffffff038211156146e3576146e261485a565b5b828201905092915050565b60006146f98261476a565b91506147048361476a565b9250828210156147175761471661485a565b5b828203905092915050565b600061472d8261474a565b9050919050565b60008115159050919050565b6000819050919050565b600073ffffffffffffffffffffffffffffffffffffffff82169050919050565b6000819050919050565b600060ff82169050919050565b600061478c8261476a565b9050919050565b82818337600083830152505050565b60005b838110156147c05780820151818401526020810190506147a5565b838111156147cf576000848401525b50505050565b600060028204905060018216806147ed57607f821691505b6020821081141561480157614800614889565b5b50919050565b60006148128261476a565b91507fffffffffffffffffffffffffffffffffffffffffffffffffffffffffffffffff8214156148455761484461485a565b5b600182019050919050565b6000819050919050565b7f4e487b7100000000000000000000000000000000000000000000000000000000600052601160045260246000fd5b7f4e487b7100000000000000000000000000000000000000000000000000000000600052602260045260246000fd5b7f4e487b7100000000000000000000000000000000000000000000000000000000600052604160045260246000fd5b6000601f19601f8301169050919050565b61490181614722565b811461490c57600080fd5b50565b61491881614734565b811461492357600080fd5b50565b61492f81614740565b811461493a57600080fd5b50565b6149468161476a565b811461495157600080fd5b50565b61495d81614774565b811461496857600080fd5b5056fea26469706673582212201add357682d35b4a2b1dde915579e45907300a417b0370f95a5e658d380ce9d064736f6c63430008000033",
  "devdoc": {
    "kind": "dev",
    "methods": {
      "owner()": {
        "details": "Returns the address of the current owner."
      },
      "renounceOwnership()": {
        "details": "Leaves the contract without owner. It will not be possible to call `onlyOwner` functions anymore. Can only be called by the current owner. NOTE: Renouncing ownership will leave the contract without an owner, thereby removing any functionality that is only available to the owner."
      },
      "transferOwnership(address)": {
        "details": "Transfers ownership of the contract to a new account (`newOwner`). Can only be called by the current owner."
      }
    },
    "version": 1
  },
  "userdoc": {
    "kind": "user",
    "methods": {},
    "version": 1
  },
  "storageLayout": {
    "storage": [
      {
        "astId": 147,
        "contract": "src/contracts/antei/AnteiStableDollarEntities.sol:AnteiStableDollarEntities",
        "label": "name",
        "offset": 0,
        "slot": "0",
        "type": "t_string_storage"
      },
      {
        "astId": 149,
        "contract": "src/contracts/antei/AnteiStableDollarEntities.sol:AnteiStableDollarEntities",
        "label": "symbol",
        "offset": 0,
        "slot": "1",
        "type": "t_string_storage"
      },
      {
        "astId": 153,
        "contract": "src/contracts/antei/AnteiStableDollarEntities.sol:AnteiStableDollarEntities",
        "label": "totalSupply",
        "offset": 0,
        "slot": "2",
        "type": "t_uint256"
      },
      {
        "astId": 157,
        "contract": "src/contracts/antei/AnteiStableDollarEntities.sol:AnteiStableDollarEntities",
        "label": "balanceOf",
        "offset": 0,
        "slot": "3",
        "type": "t_mapping(t_address,t_uint256)"
      },
      {
        "astId": 163,
        "contract": "src/contracts/antei/AnteiStableDollarEntities.sol:AnteiStableDollarEntities",
        "label": "allowance",
        "offset": 0,
        "slot": "4",
        "type": "t_mapping(t_address,t_mapping(t_address,t_uint256))"
      },
      {
        "astId": 176,
        "contract": "src/contracts/antei/AnteiStableDollarEntities.sol:AnteiStableDollarEntities",
        "label": "nonces",
        "offset": 0,
        "slot": "5",
        "type": "t_mapping(t_address,t_uint256)"
      },
      {
        "astId": 7,
        "contract": "src/contracts/antei/AnteiStableDollarEntities.sol:AnteiStableDollarEntities",
        "label": "_owner",
        "offset": 0,
        "slot": "6",
        "type": "t_address"
      },
      {
        "astId": 8715,
        "contract": "src/contracts/antei/AnteiStableDollarEntities.sol:AnteiStableDollarEntities",
        "label": "_entities",
        "offset": 0,
        "slot": "7",
        "type": "t_mapping(t_uint256,t_struct(InternalEntity)8678_storage)"
      },
      {
        "astId": 8719,
        "contract": "src/contracts/antei/AnteiStableDollarEntities.sol:AnteiStableDollarEntities",
        "label": "_minterToEntity",
        "offset": 0,
        "slot": "8",
        "type": "t_mapping(t_address,t_uint256)"
      },
      {
        "astId": 8723,
        "contract": "src/contracts/antei/AnteiStableDollarEntities.sol:AnteiStableDollarEntities",
        "label": "_burnerToEntity",
        "offset": 0,
        "slot": "9",
        "type": "t_mapping(t_address,t_uint256)"
      },
      {
        "astId": 8725,
        "contract": "src/contracts/antei/AnteiStableDollarEntities.sol:AnteiStableDollarEntities",
        "label": "_entityCount",
        "offset": 0,
        "slot": "10",
        "type": "t_uint256"
      }
    ],
    "types": {
      "t_address": {
        "encoding": "inplace",
        "label": "address",
        "numberOfBytes": "20"
      },
      "t_array(t_address)dyn_storage": {
        "base": "t_address",
        "encoding": "dynamic_array",
        "label": "address[]",
        "numberOfBytes": "32"
      },
      "t_bool": {
        "encoding": "inplace",
        "label": "bool",
        "numberOfBytes": "1"
      },
      "t_mapping(t_address,t_mapping(t_address,t_uint256))": {
        "encoding": "mapping",
        "key": "t_address",
        "label": "mapping(address => mapping(address => uint256))",
        "numberOfBytes": "32",
        "value": "t_mapping(t_address,t_uint256)"
      },
      "t_mapping(t_address,t_uint256)": {
        "encoding": "mapping",
        "key": "t_address",
        "label": "mapping(address => uint256)",
        "numberOfBytes": "32",
        "value": "t_uint256"
      },
      "t_mapping(t_uint256,t_struct(InternalEntity)8678_storage)": {
        "encoding": "mapping",
        "key": "t_uint256",
        "label": "mapping(uint256 => struct AnteiStableDollarEntities.InternalEntity)",
        "numberOfBytes": "32",
        "value": "t_struct(InternalEntity)8678_storage"
      },
      "t_string_storage": {
        "encoding": "bytes",
        "label": "string",
        "numberOfBytes": "32"
      },
      "t_struct(InternalEntity)8678_storage": {
        "encoding": "inplace",
        "label": "struct AnteiStableDollarEntities.InternalEntity",
        "members": [
          {
            "astId": 8653,
            "contract": "src/contracts/antei/AnteiStableDollarEntities.sol:AnteiStableDollarEntities",
            "label": "id",
            "offset": 0,
            "slot": "0",
            "type": "t_uint256"
          },
          {
            "astId": 8655,
            "contract": "src/contracts/antei/AnteiStableDollarEntities.sol:AnteiStableDollarEntities",
            "label": "label",
            "offset": 0,
            "slot": "1",
            "type": "t_string_storage"
          },
          {
            "astId": 8657,
            "contract": "src/contracts/antei/AnteiStableDollarEntities.sol:AnteiStableDollarEntities",
            "label": "entityAddress",
            "offset": 0,
            "slot": "2",
            "type": "t_address"
          },
          {
            "astId": 8659,
            "contract": "src/contracts/antei/AnteiStableDollarEntities.sol:AnteiStableDollarEntities",
            "label": "mintLimit",
            "offset": 0,
            "slot": "3",
            "type": "t_uint256"
          },
          {
            "astId": 8661,
            "contract": "src/contracts/antei/AnteiStableDollarEntities.sol:AnteiStableDollarEntities",
            "label": "mintBalance",
            "offset": 0,
            "slot": "4",
            "type": "t_uint256"
          },
          {
            "astId": 8664,
            "contract": "src/contracts/antei/AnteiStableDollarEntities.sol:AnteiStableDollarEntities",
            "label": "minters",
            "offset": 0,
            "slot": "5",
            "type": "t_array(t_address)dyn_storage"
          },
          {
            "astId": 8667,
            "contract": "src/contracts/antei/AnteiStableDollarEntities.sol:AnteiStableDollarEntities",
            "label": "burners",
            "offset": 0,
            "slot": "6",
            "type": "t_array(t_address)dyn_storage"
          },
          {
            "astId": 8669,
            "contract": "src/contracts/antei/AnteiStableDollarEntities.sol:AnteiStableDollarEntities",
            "label": "active",
            "offset": 0,
            "slot": "7",
            "type": "t_bool"
          },
          {
            "astId": 8673,
            "contract": "src/contracts/antei/AnteiStableDollarEntities.sol:AnteiStableDollarEntities",
            "label": "mintersIndexes",
            "offset": 0,
            "slot": "8",
            "type": "t_mapping(t_address,t_uint256)"
          },
          {
            "astId": 8677,
            "contract": "src/contracts/antei/AnteiStableDollarEntities.sol:AnteiStableDollarEntities",
            "label": "burnersIndexes",
            "offset": 0,
            "slot": "9",
            "type": "t_mapping(t_address,t_uint256)"
          }
        ],
        "numberOfBytes": "320"
      },
      "t_uint256": {
        "encoding": "inplace",
        "label": "uint256",
        "numberOfBytes": "32"
      }
    }
  }
}