{
  "address": "0xA56F946D6398Dd7d9D4D9B337Cf9E0F68982ca5B",
  "abi": [
    {
      "inputs": [
        {
          "internalType": "address",
          "name": "pool",
          "type": "address"
        },
        {
          "internalType": "address",
          "name": "underlyingAsset",
          "type": "address"
        },
        {
          "internalType": "string",
          "name": "name",
          "type": "string"
        },
        {
          "internalType": "string",
          "name": "symbol",
          "type": "string"
        },
        {
          "internalType": "address",
          "name": "incentivesController",
          "type": "address"
        }
      ],
      "stateMutability": "nonpayable",
      "type": "constructor"
    },
    {
      "anonymous": false,
      "inputs": [
        {
          "indexed": true,
          "internalType": "address",
          "name": "owner",
          "type": "address"
        },
        {
          "indexed": true,
          "internalType": "address",
          "name": "spender",
          "type": "address"
        },
        {
          "indexed": false,
          "internalType": "uint256",
          "name": "value",
          "type": "uint256"
        }
      ],
      "name": "Approval",
      "type": "event"
    },
    {
      "anonymous": false,
      "inputs": [
        {
          "indexed": true,
          "internalType": "address",
          "name": "fromUser",
          "type": "address"
        },
        {
          "indexed": true,
          "internalType": "address",
          "name": "toUser",
          "type": "address"
        },
        {
          "indexed": false,
          "internalType": "address",
          "name": "asset",
          "type": "address"
        },
        {
          "indexed": false,
          "internalType": "uint256",
          "name": "amount",
          "type": "uint256"
        }
      ],
      "name": "BorrowAllowanceDelegated",
      "type": "event"
    },
    {
      "anonymous": false,
      "inputs": [
        {
          "indexed": true,
          "internalType": "address",
          "name": "user",
          "type": "address"
        },
        {
          "indexed": false,
          "internalType": "uint256",
          "name": "amount",
          "type": "uint256"
        },
        {
          "indexed": false,
          "internalType": "uint256",
          "name": "index",
          "type": "uint256"
        }
      ],
      "name": "Burn",
      "type": "event"
    },
    {
      "anonymous": false,
      "inputs": [
        {
          "indexed": true,
          "internalType": "address",
          "name": "from",
          "type": "address"
        },
        {
          "indexed": true,
          "internalType": "address",
          "name": "onBehalfOf",
          "type": "address"
        },
        {
          "indexed": false,
          "internalType": "uint256",
          "name": "value",
          "type": "uint256"
        },
        {
          "indexed": false,
          "internalType": "uint256",
          "name": "index",
          "type": "uint256"
        }
      ],
      "name": "Mint",
      "type": "event"
    },
    {
      "anonymous": false,
      "inputs": [
        {
          "indexed": true,
          "internalType": "address",
          "name": "from",
          "type": "address"
        },
        {
          "indexed": true,
          "internalType": "address",
          "name": "to",
          "type": "address"
        },
        {
          "indexed": false,
          "internalType": "uint256",
          "name": "value",
          "type": "uint256"
        }
      ],
      "name": "Transfer",
      "type": "event"
    },
    {
      "inputs": [],
      "name": "DEBT_TOKEN_REVISION",
      "outputs": [
        {
          "internalType": "uint256",
          "name": "",
          "type": "uint256"
        }
      ],
      "stateMutability": "view",
      "type": "function"
    },
    {
      "inputs": [],
      "name": "POOL",
      "outputs": [
        {
          "internalType": "contract ILendingPool",
          "name": "",
          "type": "address"
        }
      ],
      "stateMutability": "view",
      "type": "function"
    },
    {
      "inputs": [],
      "name": "UNDERLYING_ASSET_ADDRESS",
      "outputs": [
        {
          "internalType": "address",
          "name": "",
          "type": "address"
        }
      ],
      "stateMutability": "view",
      "type": "function"
    },
    {
      "inputs": [
        {
          "internalType": "address",
          "name": "owner",
          "type": "address"
        },
        {
          "internalType": "address",
          "name": "spender",
          "type": "address"
        }
      ],
      "name": "allowance",
      "outputs": [
        {
          "internalType": "uint256",
          "name": "",
          "type": "uint256"
        }
      ],
      "stateMutability": "view",
      "type": "function"
    },
    {
      "inputs": [
        {
          "internalType": "address",
          "name": "spender",
          "type": "address"
        },
        {
          "internalType": "uint256",
          "name": "amount",
          "type": "uint256"
        }
      ],
      "name": "approve",
      "outputs": [
        {
          "internalType": "bool",
          "name": "",
          "type": "bool"
        }
      ],
      "stateMutability": "nonpayable",
      "type": "function"
    },
    {
      "inputs": [
        {
          "internalType": "address",
          "name": "delegatee",
          "type": "address"
        },
        {
          "internalType": "uint256",
          "name": "amount",
          "type": "uint256"
        }
      ],
      "name": "approveDelegation",
      "outputs": [],
      "stateMutability": "nonpayable",
      "type": "function"
    },
    {
      "inputs": [
        {
          "internalType": "address",
          "name": "user",
          "type": "address"
        }
      ],
      "name": "balanceOf",
      "outputs": [
        {
          "internalType": "uint256",
          "name": "",
          "type": "uint256"
        }
      ],
      "stateMutability": "view",
      "type": "function"
    },
    {
      "inputs": [
        {
          "internalType": "address",
          "name": "fromUser",
          "type": "address"
        },
        {
          "internalType": "address",
          "name": "toUser",
          "type": "address"
        }
      ],
      "name": "borrowAllowance",
      "outputs": [
        {
          "internalType": "uint256",
          "name": "",
          "type": "uint256"
        }
      ],
      "stateMutability": "view",
      "type": "function"
    },
    {
      "inputs": [
        {
          "internalType": "address",
          "name": "user",
          "type": "address"
        },
        {
          "internalType": "uint256",
          "name": "amount",
          "type": "uint256"
        },
        {
          "internalType": "uint256",
          "name": "index",
          "type": "uint256"
        }
      ],
      "name": "burn",
      "outputs": [],
      "stateMutability": "nonpayable",
      "type": "function"
    },
    {
      "inputs": [],
      "name": "decimals",
      "outputs": [
        {
          "internalType": "uint8",
          "name": "",
          "type": "uint8"
        }
      ],
      "stateMutability": "view",
      "type": "function"
    },
    {
      "inputs": [
        {
          "internalType": "address",
          "name": "spender",
          "type": "address"
        },
        {
          "internalType": "uint256",
          "name": "subtractedValue",
          "type": "uint256"
        }
      ],
      "name": "decreaseAllowance",
      "outputs": [
        {
          "internalType": "bool",
          "name": "",
          "type": "bool"
        }
      ],
      "stateMutability": "nonpayable",
      "type": "function"
    },
    {
      "inputs": [
        {
          "internalType": "address",
          "name": "user",
          "type": "address"
        }
      ],
      "name": "getScaledUserBalanceAndSupply",
      "outputs": [
        {
          "internalType": "uint256",
          "name": "",
          "type": "uint256"
        },
        {
          "internalType": "uint256",
          "name": "",
          "type": "uint256"
        }
      ],
      "stateMutability": "view",
      "type": "function"
    },
    {
      "inputs": [
        {
          "internalType": "address",
          "name": "spender",
          "type": "address"
        },
        {
          "internalType": "uint256",
          "name": "addedValue",
          "type": "uint256"
        }
      ],
      "name": "increaseAllowance",
      "outputs": [
        {
          "internalType": "bool",
          "name": "",
          "type": "bool"
        }
      ],
      "stateMutability": "nonpayable",
      "type": "function"
    },
    {
      "inputs": [
        {
          "internalType": "uint8",
          "name": "decimals",
          "type": "uint8"
        },
        {
          "internalType": "string",
          "name": "name",
          "type": "string"
        },
        {
          "internalType": "string",
          "name": "symbol",
          "type": "string"
        }
      ],
      "name": "initialize",
      "outputs": [],
      "stateMutability": "nonpayable",
      "type": "function"
    },
    {
      "inputs": [
        {
          "internalType": "address",
          "name": "user",
          "type": "address"
        },
        {
          "internalType": "address",
          "name": "onBehalfOf",
          "type": "address"
        },
        {
          "internalType": "uint256",
          "name": "amount",
          "type": "uint256"
        },
        {
          "internalType": "uint256",
          "name": "index",
          "type": "uint256"
        }
      ],
      "name": "mint",
      "outputs": [
        {
          "internalType": "bool",
          "name": "",
          "type": "bool"
        }
      ],
      "stateMutability": "nonpayable",
      "type": "function"
    },
    {
      "inputs": [],
      "name": "name",
      "outputs": [
        {
          "internalType": "string",
          "name": "",
          "type": "string"
        }
      ],
      "stateMutability": "view",
      "type": "function"
    },
    {
      "inputs": [
        {
          "internalType": "address",
          "name": "user",
          "type": "address"
        }
      ],
      "name": "scaledBalanceOf",
      "outputs": [
        {
          "internalType": "uint256",
          "name": "",
          "type": "uint256"
        }
      ],
      "stateMutability": "view",
      "type": "function"
    },
    {
      "inputs": [],
      "name": "scaledTotalSupply",
      "outputs": [
        {
          "internalType": "uint256",
          "name": "",
          "type": "uint256"
        }
      ],
      "stateMutability": "view",
      "type": "function"
    },
    {
      "inputs": [],
      "name": "symbol",
      "outputs": [
        {
          "internalType": "string",
          "name": "",
          "type": "string"
        }
      ],
      "stateMutability": "view",
      "type": "function"
    },
    {
      "inputs": [],
      "name": "totalSupply",
      "outputs": [
        {
          "internalType": "uint256",
          "name": "",
          "type": "uint256"
        }
      ],
      "stateMutability": "view",
      "type": "function"
    },
    {
      "inputs": [
        {
          "internalType": "address",
          "name": "recipient",
          "type": "address"
        },
        {
          "internalType": "uint256",
          "name": "amount",
          "type": "uint256"
        }
      ],
      "name": "transfer",
      "outputs": [
        {
          "internalType": "bool",
          "name": "",
          "type": "bool"
        }
      ],
      "stateMutability": "nonpayable",
      "type": "function"
    },
    {
      "inputs": [
        {
          "internalType": "address",
          "name": "sender",
          "type": "address"
        },
        {
          "internalType": "address",
          "name": "recipient",
          "type": "address"
        },
        {
          "internalType": "uint256",
          "name": "amount",
          "type": "uint256"
        }
      ],
      "name": "transferFrom",
      "outputs": [
        {
          "internalType": "bool",
          "name": "",
          "type": "bool"
        }
      ],
      "stateMutability": "nonpayable",
      "type": "function"
    }
  ],
  "transactionHash": "0xb572084b3fd97d39429909108ea321fe6f199e296ff35e868f80330b7c387732",
  "args": [
    "0x7d2768dE32b0b80b7a3454c06BdAc94A69DDc7A9",
    "0xefAB0Beb0A557E452b398035eA964948c750b2Fd",
    "Antei Stable Dollar",
    "ASD",
    "0xd784927Ff2f95ba542BfC824c8a8a98F3495f6b5"
  ],
  "numDeployments": 1,
  "solcInputHash": "128bad3d3955c2b1822e176aa3abab35",
  "bytecode": "0x60e060405260006006553480156200001657600080fd5b5060405162002bc238038062002bc2833981810160405260a08110156200003c57600080fd5b810190808051906020019092919080519060200190929190805160405193929190846401000000008211156200007157600080fd5b838201915060208201858111156200008857600080fd5b8251866001820283011164010000000082111715620000a657600080fd5b8083526020830192505050908051906020019080838360005b83811015620000dc578082015181840152602081019050620000bf565b50505050905090810190601f1680156200010a5780820380516001836020036101000a031916815260200191505b50604052602001805160405193929190846401000000008211156200012e57600080fd5b838201915060208201858111156200014557600080fd5b82518660018202830111640100000000821117156200016357600080fd5b8083526020830192505050908051906020019080838360005b83811015620001995780820151818401526020810190506200017c565b50505050905090810190601f168015620001c75780820380516001836020036101000a031916815260200191505b5060405260200180519060200190929190505050848484848482826012838360039080519060200190620001fd929190620002eb565b50826004908051906020019062000216929190620002eb565b5081600560006101000a81548160ff021916908360ff1602179055508073ffffffffffffffffffffffffffffffffffffffff1660808173ffffffffffffffffffffffffffffffffffffffff1660601b81525050505050508473ffffffffffffffffffffffffffffffffffffffff1660c08173ffffffffffffffffffffffffffffffffffffffff1660601b815250508373ffffffffffffffffffffffffffffffffffffffff1660a08173ffffffffffffffffffffffffffffffffffffffff1660601b815250505050505050505050505062000391565b828054600181600116156101000203166002900490600052602060002090601f016020900481019282601f106200032e57805160ff19168380011785556200035f565b828001600101855582156200035f579182015b828111156200035e57825182559160200191906001019062000341565b5b5090506200036e919062000372565b5090565b5b808211156200038d57600081600090555060010162000373565b5090565b60805160601c60a05160601c60c05160601c6127c4620003fe60003980610b0c5280610ecb5280610fc552806111a052806116b0525080610b485280610f07528061116b52806115e85280611d8152508061218752806121c352806123f7528061243352506127c46000f3fe608060405234801561001057600080fd5b50600436106101425760003560e01c80637535d246116100b8578063b1bf962d1161007c578063b1bf962d146107ee578063b3f1c93d1461080c578063b9a7b6221461089a578063c04a8a10146108b8578063dd62ed3e14610906578063f5298aca1461097e57610142565b80637535d2461461063b57806395d89b411461066f578063a457c2d7146106f2578063a9059cbb14610756578063b16a19de146107ba57610142565b806323b872dd1161010a57806323b872dd146103035780633118724e14610387578063313ce567146104e657806339509351146105075780636bd76d241461056b57806370a08231146105e357610142565b806306fdde0314610147578063095ea7b3146101ca5780630afbcdc91461022e57806318160ddd1461028d5780631da24f3e146102ab575b600080fd5b61014f6109d6565b6040518080602001828103825283818151815260200191508051906020019080838360005b8381101561018f578082015181840152602081019050610174565b50505050905090810190601f1680156101bc5780820380516001836020036101000a031916815260200191505b509250505060405180910390f35b610216600480360360408110156101e057600080fd5b81019080803573ffffffffffffffffffffffffffffffffffffffff16906020019092919080359060200190929190505050610a78565b60405180821515815260200191505060405180910390f35b6102706004803603602081101561024457600080fd5b81019080803573ffffffffffffffffffffffffffffffffffffffff169060200190929190505050610ae8565b604051808381526020018281526020019250505060405180910390f35b610295610b05565b6040518082815260200191505060405180910390f35b6102ed600480360360208110156102c157600080fd5b81019080803573ffffffffffffffffffffffffffffffffffffffff169060200190929190505050610c07565b6040518082815260200191505060405180910390f35b61036f6004803603606081101561031957600080fd5b81019080803573ffffffffffffffffffffffffffffffffffffffff169060200190929190803573ffffffffffffffffffffffffffffffffffffffff16906020019092919080359060200190929190505050610c19565b60405180821515815260200191505060405180910390f35b6104e46004803603606081101561039d57600080fd5b81019080803560ff169060200190929190803590602001906401000000008111156103c757600080fd5b8201836020820111156103d957600080fd5b803590602001918460018302840111640100000000831117156103fb57600080fd5b91908080601f016020809104026020016040519081016040528093929190818152602001838380828437600081840152601f19601f8201169050808301925050505050505091929192908035906020019064010000000081111561045e57600080fd5b82018360208201111561047057600080fd5b8035906020019184600183028401116401000000008311171561049257600080fd5b91908080601f016020809104026020016040519081016040528093929190818152602001838380828437600081840152601f19601f820116905080830192505050505050509192919290505050610c89565b005b6104ee610d97565b604051808260ff16815260200191505060405180910390f35b6105536004803603604081101561051d57600080fd5b81019080803573ffffffffffffffffffffffffffffffffffffffff16906020019092919080359060200190929190505050610dae565b60405180821515815260200191505060405180910390f35b6105cd6004803603604081101561058157600080fd5b81019080803573ffffffffffffffffffffffffffffffffffffffff169060200190929190803573ffffffffffffffffffffffffffffffffffffffff169060200190929190505050610e1e565b6040518082815260200191505060405180910390f35b610625600480360360208110156105f957600080fd5b81019080803573ffffffffffffffffffffffffffffffffffffffff169060200190929190505050610ea5565b6040518082815260200191505060405180910390f35b610643610fc3565b604051808273ffffffffffffffffffffffffffffffffffffffff16815260200191505060405180910390f35b610677610fe7565b6040518080602001828103825283818151815260200191508051906020019080838360005b838110156106b757808201518184015260208101905061069c565b50505050905090810190601f1680156106e45780820380516001836020036101000a031916815260200191505b509250505060405180910390f35b61073e6004803603604081101561070857600080fd5b81019080803573ffffffffffffffffffffffffffffffffffffffff16906020019092919080359060200190929190505050611089565b60405180821515815260200191505060405180910390f35b6107a26004803603604081101561076c57600080fd5b81019080803573ffffffffffffffffffffffffffffffffffffffff169060200190929190803590602001909291905050506110f9565b60405180821515815260200191505060405180910390f35b6107c2611169565b604051808273ffffffffffffffffffffffffffffffffffffffff16815260200191505060405180910390f35b6107f661118d565b6040518082815260200191505060405180910390f35b6108826004803603608081101561082257600080fd5b81019080803573ffffffffffffffffffffffffffffffffffffffff169060200190929190803573ffffffffffffffffffffffffffffffffffffffff169060200190929190803590602001909291908035906020019092919050505061119c565b60405180821515815260200191505060405180910390f35b6108a2611503565b6040518082815260200191505060405180910390f35b610904600480360360408110156108ce57600080fd5b81019080803573ffffffffffffffffffffffffffffffffffffffff16906020019092919080359060200190929190505050611508565b005b6109686004803603604081101561091c57600080fd5b81019080803573ffffffffffffffffffffffffffffffffffffffff169060200190929190803573ffffffffffffffffffffffffffffffffffffffff16906020019092919050505061163e565b6040518082815260200191505060405180910390f35b6109d46004803603606081101561099457600080fd5b81019080803573ffffffffffffffffffffffffffffffffffffffff16906020019092919080359060200190929190803590602001909291905050506116ae565b005b606060038054600181600116156101000203166002900480601f016020809104026020016040519081016040528092919081815260200182805460018160011615610100020316600290048015610a6e5780601f10610a4357610100808354040283529160200191610a6e565b820191906000526020600020905b815481529060010190602001808311610a5157829003601f168201915b5050505050905090565b60006040517f08c379a00000000000000000000000000000000000000000000000000000000081526004018080602001828103825260168152602001807f415050524f56414c5f4e4f545f535550504f525445440000000000000000000081525060200191505060405180910390fd5b600080610af4836119a6565b610afc6119ee565b91509150915091565b6000610c027f000000000000000000000000000000000000000000000000000000000000000073ffffffffffffffffffffffffffffffffffffffff1663386497fd7f00000000000000000000000000000000000000000000000000000000000000006040518263ffffffff1660e01b8152600401808273ffffffffffffffffffffffffffffffffffffffff16815260200191505060206040518083038186803b158015610bb157600080fd5b505afa158015610bc5573d6000803e3d6000fd5b505050506040513d6020811015610bdb57600080fd5b8101908080519060200190929190505050610bf46119ee565b6119f890919063ffffffff16565b905090565b6000610c12826119a6565b9050919050565b60006040517f08c379a00000000000000000000000000000000000000000000000000000000081526004018080602001828103825260168152602001807f5452414e534645525f4e4f545f535550504f525445440000000000000000000081525060200191505060405180910390fd5b6000610c93611b71565b9050600760009054906101000a900460ff1680610cb45750610cb3611b7a565b5b80610cc0575060065481115b610d15576040517f08c379a000000000000000000000000000000000000000000000000000000000815260040180806020018281038252602e815260200180612740602e913960400191505060405180910390fd5b6000600760009054906101000a900460ff161590508015610d53576001600760006101000a81548160ff021916908315150217905550816006819055505b610d5c84611b8b565b610d6583611ba5565b610d6e85611bbf565b8015610d90576000600760006101000a81548160ff0219169083151502179055505b5050505050565b6000600560009054906101000a900460ff16905090565b60006040517f08c379a00000000000000000000000000000000000000000000000000000000081526004018080602001828103825260178152602001807f414c4c4f57414e43455f4e4f545f535550504f5254454400000000000000000081525060200191505060405180910390fd5b6000603a60008473ffffffffffffffffffffffffffffffffffffffff1673ffffffffffffffffffffffffffffffffffffffff16815260200190815260200160002060008373ffffffffffffffffffffffffffffffffffffffff1673ffffffffffffffffffffffffffffffffffffffff16815260200190815260200160002054905092915050565b600080610eb1836119a6565b90506000811415610ec6576000915050610fbe565b610fba7f000000000000000000000000000000000000000000000000000000000000000073ffffffffffffffffffffffffffffffffffffffff1663386497fd7f00000000000000000000000000000000000000000000000000000000000000006040518263ffffffff1660e01b8152600401808273ffffffffffffffffffffffffffffffffffffffff16815260200191505060206040518083038186803b158015610f7057600080fd5b505afa158015610f84573d6000803e3d6000fd5b505050506040513d6020811015610f9a57600080fd5b8101908080519060200190929190505050826119f890919063ffffffff16565b9150505b919050565b7f000000000000000000000000000000000000000000000000000000000000000081565b606060048054600181600116156101000203166002900480601f01602080910402602001604051908101604052809291908181526020018280546001816001161561010002031660029004801561107f5780601f106110545761010080835404028352916020019161107f565b820191906000526020600020905b81548152906001019060200180831161106257829003601f168201915b5050505050905090565b60006040517f08c379a00000000000000000000000000000000000000000000000000000000081526004018080602001828103825260178152602001807f414c4c4f57414e43455f4e4f545f535550504f5254454400000000000000000081525060200191505060405180910390fd5b60006040517f08c379a00000000000000000000000000000000000000000000000000000000081526004018080602001828103825260168152602001807f5452414e534645525f4e4f545f535550504f525445440000000000000000000081525060200191505060405180910390fd5b7f000000000000000000000000000000000000000000000000000000000000000081565b60006111976119ee565b905090565b60007f000000000000000000000000000000000000000000000000000000000000000073ffffffffffffffffffffffffffffffffffffffff166111dd611bdd565b73ffffffffffffffffffffffffffffffffffffffff16146040518060400160405280600281526020017f3239000000000000000000000000000000000000000000000000000000000000815250906112d0576040517f08c379a00000000000000000000000000000000000000000000000000000000081526004018080602001828103825283818151815260200191508051906020019080838360005b8381101561129557808201518184015260208101905061127a565b50505050905090810190601f1680156112c25780820380516001836020036101000a031916815260200191505b509250505060405180910390fd5b508373ffffffffffffffffffffffffffffffffffffffff168573ffffffffffffffffffffffffffffffffffffffff16146113105761130f848685611be5565b5b600061131b856119a6565b905060006113328486611dd990919063ffffffff16565b905060008114156040518060400160405280600281526020017f353600000000000000000000000000000000000000000000000000000000000081525090611415576040517f08c379a00000000000000000000000000000000000000000000000000000000081526004018080602001828103825283818151815260200191508051906020019080838360005b838110156113da5780820151818401526020810190506113bf565b50505050905090810190601f1680156114075780820380516001836020036101000a031916815260200191505b509250505060405180910390fd5b506114208682612006565b8573ffffffffffffffffffffffffffffffffffffffff16600073ffffffffffffffffffffffffffffffffffffffff167fddf252ad1be2c89b69c2b068fc378daa952ba7f163c4a11628f55a4df523b3ef876040518082815260200191505060405180910390a38573ffffffffffffffffffffffffffffffffffffffff168773ffffffffffffffffffffffffffffffffffffffff167f2f00e3cdd69a77be7ed215ec7b2a36784dd158f921fca79ac29deffa353fe6ee8787604051808381526020018281526020019250505060405180910390a36000821492505050949350505050565b600181565b80603a6000611515611bdd565b73ffffffffffffffffffffffffffffffffffffffff1673ffffffffffffffffffffffffffffffffffffffff16815260200190815260200160002060008473ffffffffffffffffffffffffffffffffffffffff1673ffffffffffffffffffffffffffffffffffffffff168152602001908152602001600020819055508173ffffffffffffffffffffffffffffffffffffffff166115af611bdd565b73ffffffffffffffffffffffffffffffffffffffff167fda919360433220e13b51e8c211e490d148e61a3bd53de8c097194e458b97f3e17f000000000000000000000000000000000000000000000000000000000000000084604051808373ffffffffffffffffffffffffffffffffffffffff1681526020018281526020019250505060405180910390a35050565b60006040517f08c379a00000000000000000000000000000000000000000000000000000000081526004018080602001828103825260178152602001807f414c4c4f57414e43455f4e4f545f535550504f5254454400000000000000000081525060200191505060405180910390fd5b7f000000000000000000000000000000000000000000000000000000000000000073ffffffffffffffffffffffffffffffffffffffff166116ed611bdd565b73ffffffffffffffffffffffffffffffffffffffff16146040518060400160405280600281526020017f3239000000000000000000000000000000000000000000000000000000000000815250906117e0576040517f08c379a00000000000000000000000000000000000000000000000000000000081526004018080602001828103825283818151815260200191508051906020019080838360005b838110156117a557808201518184015260208101905061178a565b50505050905090810190601f1680156117d25780820380516001836020036101000a031916815260200191505b509250505060405180910390fd5b5060006117f68284611dd990919063ffffffff16565b905060008114156040518060400160405280600281526020017f3538000000000000000000000000000000000000000000000000000000000000815250906118d9576040517f08c379a00000000000000000000000000000000000000000000000000000000081526004018080602001828103825283818151815260200191508051906020019080838360005b8381101561189e578082015181840152602081019050611883565b50505050905090810190601f1680156118cb5780820380516001836020036101000a031916815260200191505b509250505060405180910390fd5b506118e48482612279565b600073ffffffffffffffffffffffffffffffffffffffff168473ffffffffffffffffffffffffffffffffffffffff167fddf252ad1be2c89b69c2b068fc378daa952ba7f163c4a11628f55a4df523b3ef856040518082815260200191505060405180910390a38373ffffffffffffffffffffffffffffffffffffffff167f49995e5dd6158cf69ad3e9777c46755a1a826a446c6416992167462dad033b2a8484604051808381526020018281526020019250505060405180910390a250505050565b60008060008373ffffffffffffffffffffffffffffffffffffffff1673ffffffffffffffffffffffffffffffffffffffff168152602001908152602001600020549050919050565b6000600254905090565b600080831480611a085750600082145b15611a165760009050611b6b565b8160026b033b2e3c9fd0803ce800000081611a2d57fe5b047fffffffffffffffffffffffffffffffffffffffffffffffffffffffffffffffff0381611a5757fe5b048311156040518060400160405280600281526020017f343800000000000000000000000000000000000000000000000000000000000081525090611b37576040517f08c379a00000000000000000000000000000000000000000000000000000000081526004018080602001828103825283818151815260200191508051906020019080838360005b83811015611afc578082015181840152602081019050611ae1565b50505050905090810190601f168015611b295780820380516001836020036101000a031916815260200191505b509250505060405180910390fd5b506b033b2e3c9fd0803ce800000060026b033b2e3c9fd0803ce800000081611b5b57fe5b048385020181611b6757fe5b0490505b92915050565b60006001905090565b600080303b90506000811491505090565b8060039080519060200190611ba1929190612680565b5050565b8060049080519060200190611bbb929190612680565b5050565b80600560006101000a81548160ff021916908360ff16021790555050565b600033905090565b6000611cad826040518060400160405280600281526020017f3539000000000000000000000000000000000000000000000000000000000000815250603a60008873ffffffffffffffffffffffffffffffffffffffff1673ffffffffffffffffffffffffffffffffffffffff16815260200190815260200160002060008773ffffffffffffffffffffffffffffffffffffffff1673ffffffffffffffffffffffffffffffffffffffff168152602001908152602001600020546124e99092919063ffffffff16565b905080603a60008673ffffffffffffffffffffffffffffffffffffffff1673ffffffffffffffffffffffffffffffffffffffff16815260200190815260200160002060008573ffffffffffffffffffffffffffffffffffffffff1673ffffffffffffffffffffffffffffffffffffffff168152602001908152602001600020819055508273ffffffffffffffffffffffffffffffffffffffff168473ffffffffffffffffffffffffffffffffffffffff167fda919360433220e13b51e8c211e490d148e61a3bd53de8c097194e458b97f3e17f000000000000000000000000000000000000000000000000000000000000000084604051808373ffffffffffffffffffffffffffffffffffffffff1681526020018281526020019250505060405180910390a350505050565b6000808214156040518060400160405280600281526020017f353000000000000000000000000000000000000000000000000000000000000081525090611ebb576040517f08c379a00000000000000000000000000000000000000000000000000000000081526004018080602001828103825283818151815260200191508051906020019080838360005b83811015611e80578082015181840152602081019050611e65565b50505050905090810190601f168015611ead5780820380516001836020036101000a031916815260200191505b509250505060405180910390fd5b50600060028381611ec857fe5b0490506b033b2e3c9fd0803ce8000000817fffffffffffffffffffffffffffffffffffffffffffffffffffffffffffffffff0381611f0257fe5b048411156040518060400160405280600281526020017f343800000000000000000000000000000000000000000000000000000000000081525090611fe2576040517f08c379a00000000000000000000000000000000000000000000000000000000081526004018080602001828103825283818151815260200191508051906020019080838360005b83811015611fa7578082015181840152602081019050611f8c565b50505050905090810190601f168015611fd45780820380516001836020036101000a031916815260200191505b509250505060405180910390fd5b5082816b033b2e3c9fd0803ce800000086020181611ffc57fe5b0491505092915050565b600073ffffffffffffffffffffffffffffffffffffffff168273ffffffffffffffffffffffffffffffffffffffff1614156120a9576040517f08c379a000000000000000000000000000000000000000000000000000000000815260040180806020018281038252601f8152602001807f45524332303a206d696e7420746f20746865207a65726f20616464726573730081525060200191505060405180910390fd5b6120b5600083836125a9565b600060025490506120cf82826125ae90919063ffffffff16565b60028190555060008060008573ffffffffffffffffffffffffffffffffffffffff1673ffffffffffffffffffffffffffffffffffffffff16815260200190815260200160002054905061212b83826125ae90919063ffffffff16565b6000808673ffffffffffffffffffffffffffffffffffffffff1673ffffffffffffffffffffffffffffffffffffffff16815260200190815260200160002081905550600073ffffffffffffffffffffffffffffffffffffffff167f000000000000000000000000000000000000000000000000000000000000000073ffffffffffffffffffffffffffffffffffffffff1614612273577f000000000000000000000000000000000000000000000000000000000000000073ffffffffffffffffffffffffffffffffffffffff166331873e2e8584846040518463ffffffff1660e01b8152600401808473ffffffffffffffffffffffffffffffffffffffff1681526020018381526020018281526020019350505050600060405180830381600087803b15801561225a57600080fd5b505af115801561226e573d6000803e3d6000fd5b505050505b50505050565b600073ffffffffffffffffffffffffffffffffffffffff168273ffffffffffffffffffffffffffffffffffffffff1614156122ff576040517f08c379a000000000000000000000000000000000000000000000000000000000815260040180806020018281038252602181526020018061276e6021913960400191505060405180910390fd5b61230b826000836125a9565b60006002549050612325828261263690919063ffffffff16565b60028190555060008060008573ffffffffffffffffffffffffffffffffffffffff1673ffffffffffffffffffffffffffffffffffffffff16815260200190815260200160002054905061239b8360405180606001604052806022815260200161271e60229139836124e99092919063ffffffff16565b6000808673ffffffffffffffffffffffffffffffffffffffff1673ffffffffffffffffffffffffffffffffffffffff16815260200190815260200160002081905550600073ffffffffffffffffffffffffffffffffffffffff167f000000000000000000000000000000000000000000000000000000000000000073ffffffffffffffffffffffffffffffffffffffff16146124e3577f000000000000000000000000000000000000000000000000000000000000000073ffffffffffffffffffffffffffffffffffffffff166331873e2e8584846040518463ffffffff1660e01b8152600401808473ffffffffffffffffffffffffffffffffffffffff1681526020018381526020018281526020019350505050600060405180830381600087803b1580156124ca57600080fd5b505af11580156124de573d6000803e3d6000fd5b505050505b50505050565b6000838311158290612596576040517f08c379a00000000000000000000000000000000000000000000000000000000081526004018080602001828103825283818151815260200191508051906020019080838360005b8381101561255b578082015181840152602081019050612540565b50505050905090810190601f1680156125885780820380516001836020036101000a031916815260200191505b509250505060405180910390fd5b5060008385039050809150509392505050565b505050565b60008082840190508381101561262c576040517f08c379a000000000000000000000000000000000000000000000000000000000815260040180806020018281038252601b8152602001807f536166654d6174683a206164646974696f6e206f766572666c6f77000000000081525060200191505060405180910390fd5b8091505092915050565b600061267883836040518060400160405280601e81526020017f536166654d6174683a207375627472616374696f6e206f766572666c6f7700008152506124e9565b905092915050565b828054600181600116156101000203166002900490600052602060002090601f016020900481019282601f106126c157805160ff19168380011785556126ef565b828001600101855582156126ef579182015b828111156126ee5782518255916020019190600101906126d3565b5b5090506126fc9190612700565b5090565b5b80821115612719576000816000905550600101612701565b509056fe45524332303a206275726e20616d6f756e7420657863656564732062616c616e6365436f6e747261637420696e7374616e63652068617320616c7265616479206265656e20696e697469616c697a656445524332303a206275726e2066726f6d20746865207a65726f2061646472657373a26469706673582212202f260d48e93b104f8fc3ef379c997a0dc2fb12442ccedfda94c79e4b8b6baf0564736f6c634300060c0033",
  "devdoc": {
    "author": "Aave*",
    "kind": "dev",
    "methods": {
      "allowance(address,address)": {
        "details": "Returns the allowance of spender on the tokens owned by owner",
        "params": {
          "owner": "The owner of the tokens",
          "spender": "The user allowed to spend the owner's tokens"
        },
        "returns": {
          "_0": "The amount of owner's tokens spender is allowed to spend*"
        }
      },
      "approve(address,uint256)": {
        "details": "Allows `spender` to spend the tokens owned by _msgSender()",
        "params": {
          "spender": "The user allowed to spend _msgSender() tokens"
        },
        "returns": {
          "_0": "`true`*"
        }
      },
      "approveDelegation(address,uint256)": {
        "details": "delegates borrowing power to a user on the specific debt token",
        "params": {
          "amount": "the maximum amount being delegated. Delegation will still respect the liquidation constraints (even if delegated, a delegatee cannot force a delegator HF to go below 1)*",
          "delegatee": "the address receiving the delegated borrowing power"
        }
      },
      "balanceOf(address)": {
        "details": "Calculates the accumulated debt balance of the user",
        "returns": {
          "_0": "The debt balance of the user*"
        }
      },
      "borrowAllowance(address,address)": {
        "details": "returns the borrow allowance of the user",
        "params": {
          "fromUser": "The user to giving allowance",
          "toUser": "The user to give allowance to"
        },
        "returns": {
          "_0": "the current allowance of toUser*"
        }
      },
      "burn(address,uint256,uint256)": {
        "details": "Burns user variable debt - Only callable by the LendingPool",
        "params": {
          "amount": "The amount getting burned",
          "index": "The variable debt index of the reserve*",
          "user": "The user whose debt is getting burned"
        }
      },
      "decimals()": {
        "returns": {
          "_0": "The decimals of the token*"
        }
      },
      "decreaseAllowance(address,uint256)": {
        "details": "Decreases the allowance of spender to spend _msgSender() tokens",
        "params": {
          "spender": "The user allowed to spend on behalf of _msgSender()",
          "subtractedValue": "The amount being subtracted to the allowance"
        },
        "returns": {
          "_0": "`true`*"
        }
      },
      "getScaledUserBalanceAndSupply(address)": {
        "details": "Returns the principal balance of the user and principal total supply.",
        "params": {
          "user": "The address of the user"
        },
        "returns": {
          "_0": "The principal balance of the user",
          "_1": "The principal total supply*"
        }
      },
      "increaseAllowance(address,uint256)": {
        "details": "Increases the allowance of spender to spend _msgSender() tokens",
        "params": {
          "addedValue": "The amount being added to the allowance",
          "spender": "The user allowed to spend on behalf of _msgSender()"
        },
        "returns": {
          "_0": "`true`*"
        }
      },
      "initialize(uint8,string,string)": {
        "details": "Initializes the debt token.",
        "params": {
          "decimals": "The decimals of the token",
          "name": "The name of the token",
          "symbol": "The symbol of the token"
        }
      },
      "mint(address,address,uint256,uint256)": {
        "details": "Mints debt token to the `onBehalfOf` address -  Only callable by the LendingPool",
        "params": {
          "amount": "The amount of debt being minted",
          "index": "The variable debt index of the reserve",
          "onBehalfOf": "The address receiving the debt tokens",
          "user": "The address receiving the borrowed underlying, being the delegatee in case of credit delegate, or same as `onBehalfOf` otherwise"
        },
        "returns": {
          "_0": "`true` if the the previous balance of the user is 0*"
        }
      },
      "name()": {
        "returns": {
          "_0": "The name of the token*"
        }
      },
      "scaledBalanceOf(address)": {
        "details": "Returns the principal debt balance of the user from",
        "returns": {
          "_0": "The debt balance of the user since the last burn/mint action*"
        }
      },
      "scaledTotalSupply()": {
        "details": "Returns the scaled total supply of the variable debt token. Represents sum(debt/index)",
        "returns": {
          "_0": "the scaled total supply*"
        }
      },
      "symbol()": {
        "returns": {
          "_0": "The symbol of the token*"
        }
      },
      "totalSupply()": {
        "details": "Returns the total supply of the variable debt token. Represents the total debt accrued by the users",
        "returns": {
          "_0": "The total supply*"
        }
      },
      "transfer(address,uint256)": {
        "details": "Being non transferrable, the debt token does not implement any of the standard ERC20 functions for transfer and allowance.*"
      },
      "transferFrom(address,address,uint256)": {
        "details": "Executes a transfer of token from sender to recipient, if _msgSender() is allowed to do so",
        "params": {
          "amount": "The amount of tokens being transferred",
          "recipient": "The recipient of the tokens",
          "sender": "The owner of the tokens"
        },
        "returns": {
          "_0": "`true` if the transfer succeeds, `false` otherwise*"
        }
      }
    },
    "title": "VariableDebtToken",
    "version": 1
  },
  "userdoc": {
    "kind": "user",
    "methods": {},
    "notice": "Implements a variable debt token to track the borrowing positions of users at variable rate mode",
    "version": 1
  },
  "storageLayout": {
    "storage": [
      {
        "astId": 3061,
        "contract": "@aave/protocol-v2/contracts/protocol/tokenization/VariableDebtToken.sol:VariableDebtToken",
        "label": "_balances",
        "offset": 0,
        "slot": "0",
        "type": "t_mapping(t_address,t_uint256)"
      },
      {
        "astId": 3067,
        "contract": "@aave/protocol-v2/contracts/protocol/tokenization/VariableDebtToken.sol:VariableDebtToken",
        "label": "_allowances",
        "offset": 0,
        "slot": "1",
        "type": "t_mapping(t_address,t_mapping(t_address,t_uint256))"
      },
      {
        "astId": 3069,
        "contract": "@aave/protocol-v2/contracts/protocol/tokenization/VariableDebtToken.sol:VariableDebtToken",
        "label": "_totalSupply",
        "offset": 0,
        "slot": "2",
        "type": "t_uint256"
      },
      {
        "astId": 3071,
        "contract": "@aave/protocol-v2/contracts/protocol/tokenization/VariableDebtToken.sol:VariableDebtToken",
        "label": "_name",
        "offset": 0,
        "slot": "3",
        "type": "t_string_storage"
      },
      {
        "astId": 3073,
        "contract": "@aave/protocol-v2/contracts/protocol/tokenization/VariableDebtToken.sol:VariableDebtToken",
        "label": "_symbol",
        "offset": 0,
        "slot": "4",
        "type": "t_string_storage"
      },
      {
        "astId": 3075,
        "contract": "@aave/protocol-v2/contracts/protocol/tokenization/VariableDebtToken.sol:VariableDebtToken",
        "label": "_decimals",
        "offset": 0,
        "slot": "5",
        "type": "t_uint8"
      },
      {
        "astId": 1486,
        "contract": "@aave/protocol-v2/contracts/protocol/tokenization/VariableDebtToken.sol:VariableDebtToken",
        "label": "lastInitializedRevision",
        "offset": 0,
        "slot": "6",
        "type": "t_uint256"
      },
      {
        "astId": 1489,
        "contract": "@aave/protocol-v2/contracts/protocol/tokenization/VariableDebtToken.sol:VariableDebtToken",
        "label": "initializing",
        "offset": 0,
        "slot": "7",
        "type": "t_bool"
      },
      {
        "astId": 1559,
        "contract": "@aave/protocol-v2/contracts/protocol/tokenization/VariableDebtToken.sol:VariableDebtToken",
        "label": "______gap",
        "offset": 0,
        "slot": "8",
        "type": "t_array(t_uint256)50_storage"
      },
      {
        "astId": 4790,
        "contract": "@aave/protocol-v2/contracts/protocol/tokenization/VariableDebtToken.sol:VariableDebtToken",
        "label": "_borrowAllowances",
        "offset": 0,
        "slot": "58",
        "type": "t_mapping(t_address,t_mapping(t_address,t_uint256))"
      }
    ],
    "types": {
      "t_address": {
        "encoding": "inplace",
        "label": "address",
        "numberOfBytes": "20"
      },
      "t_array(t_uint256)50_storage": {
        "base": "t_uint256",
        "encoding": "inplace",
        "label": "uint256[50]",
        "numberOfBytes": "1600"
      },
      "t_bool": {
        "encoding": "inplace",
        "label": "bool",
        "numberOfBytes": "1"
      },
      "t_mapping(t_address,t_mapping(t_address,t_uint256))": {
        "encoding": "mapping",
        "key": "t_address",
        "label": "mapping(address => mapping(address => uint256))",
        "numberOfBytes": "32",
        "value": "t_mapping(t_address,t_uint256)"
      },
      "t_mapping(t_address,t_uint256)": {
        "encoding": "mapping",
        "key": "t_address",
        "label": "mapping(address => uint256)",
        "numberOfBytes": "32",
        "value": "t_uint256"
      },
      "t_string_storage": {
        "encoding": "bytes",
        "label": "string",
        "numberOfBytes": "32"
      },
      "t_uint256": {
        "encoding": "inplace",
        "label": "uint256",
        "numberOfBytes": "32"
      },
      "t_uint8": {
        "encoding": "inplace",
        "label": "uint8",
        "numberOfBytes": "1"
      }
    }
  }
}